{
  "_format": "hh-sol-artifact-1",
  "contractName": "Counter",
  "sourceName": "contracts/Counter.sol",
  "abi": [
    {
      "inputs": [],
      "stateMutability": "nonpayable",
      "type": "constructor"
    },
    {
      "inputs": [
        {
          "internalType": "address",
          "name": "owner",
          "type": "address"
        }
      ],
      "name": "OwnableInvalidOwner",
      "type": "error"
    },
    {
      "inputs": [
        {
          "internalType": "address",
          "name": "account",
          "type": "address"
        }
      ],
      "name": "OwnableUnauthorizedAccount",
      "type": "error"
    },
    {
      "anonymous": false,
      "inputs": [
        {
          "indexed": true,
          "internalType": "address",
          "name": "account",
          "type": "address"
        },
        {
          "indexed": false,
          "internalType": "uint256",
          "name": "counter",
          "type": "uint256"
        }
      ],
      "name": "Increase",
      "type": "event"
    },
    {
      "anonymous": false,
      "inputs": [
        {
          "indexed": true,
          "internalType": "address",
          "name": "previousOwner",
          "type": "address"
        },
        {
          "indexed": true,
          "internalType": "address",
          "name": "newOwner",
          "type": "address"
        }
      ],
      "name": "OwnershipTransferred",
      "type": "event"
    },
    {
      "inputs": [],
      "name": "counter",
      "outputs": [
        {
          "internalType": "uint256",
          "name": "",
          "type": "uint256"
        }
      ],
      "stateMutability": "view",
      "type": "function"
    },
    {
      "inputs": [],
      "name": "increase",
      "outputs": [],
      "stateMutability": "nonpayable",
      "type": "function"
    },
    {
      "inputs": [],
      "name": "owner",
      "outputs": [
        {
          "internalType": "address",
          "name": "",
          "type": "address"
        }
      ],
      "stateMutability": "view",
      "type": "function"
    },
    {
      "inputs": [],
      "name": "renounceOwnership",
      "outputs": [],
      "stateMutability": "nonpayable",
      "type": "function"
    },
    {
      "inputs": [
        {
          "internalType": "address",
          "name": "newOwner",
          "type": "address"
        }
      ],
      "name": "transferOwnership",
      "outputs": [],
      "stateMutability": "nonpayable",
      "type": "function"
    }
  ],
  "bytecode": "0x608060405234801561001057600080fd5b5033600073ffffffffffffffffffffffffffffffffffffffff168173ffffffffffffffffffffffffffffffffffffffff16036100845760006040517f1e4fbdf700000000000000000000000000000000000000000000000000000000815260040161007b91906101a6565b60405180910390fd5b610093816100a160201b60201c565b5060006001819055506101c1565b60008060009054906101000a900473ffffffffffffffffffffffffffffffffffffffff169050816000806101000a81548173ffffffffffffffffffffffffffffffffffffffff021916908373ffffffffffffffffffffffffffffffffffffffff1602179055508173ffffffffffffffffffffffffffffffffffffffff168173ffffffffffffffffffffffffffffffffffffffff167f8be0079c531659141344cd1fd0a4f28419497f9722a3daafe3b4186f6b6457e060405160405180910390a35050565b600073ffffffffffffffffffffffffffffffffffffffff82169050919050565b600061019082610165565b9050919050565b6101a081610185565b82525050565b60006020820190506101bb6000830184610197565b92915050565b6104d9806101d06000396000f3fe608060405234801561001057600080fd5b50600436106100575760003560e01c806361bc221a1461005c578063715018a61461007a5780638da5cb5b14610084578063e8927fbc146100a2578063f2fde38b146100ac575b600080fd5b6100646100c8565b604051610071919061036b565b60405180910390f35b6100826100ce565b005b61008c6100e2565b60405161009991906103c7565b60405180910390f35b6100aa61010b565b005b6100c660048036038101906100c19190610413565b610179565b005b60015481565b6100d66101ff565b6100e06000610286565b565b60008060009054906101000a900473ffffffffffffffffffffffffffffffffffffffff16905090565b6101136101ff565b60018054610121919061046f565b6001819055503373ffffffffffffffffffffffffffffffffffffffff167f12007e72f6f07d1e7dd33219d5187184ceba138e79459b6c241cec9a9399fe0c60015460405161016f919061036b565b60405180910390a2565b6101816101ff565b600073ffffffffffffffffffffffffffffffffffffffff168173ffffffffffffffffffffffffffffffffffffffff16036101f35760006040517f1e4fbdf70000000000000000000000000000000000000000000000000000000081526004016101ea91906103c7565b60405180910390fd5b6101fc81610286565b50565b61020761034a565b73ffffffffffffffffffffffffffffffffffffffff166102256100e2565b73ffffffffffffffffffffffffffffffffffffffff16146102845761024861034a565b6040517f118cdaa700000000000000000000000000000000000000000000000000000000815260040161027b91906103c7565b60405180910390fd5b565b60008060009054906101000a900473ffffffffffffffffffffffffffffffffffffffff169050816000806101000a81548173ffffffffffffffffffffffffffffffffffffffff021916908373ffffffffffffffffffffffffffffffffffffffff1602179055508173ffffffffffffffffffffffffffffffffffffffff168173ffffffffffffffffffffffffffffffffffffffff167f8be0079c531659141344cd1fd0a4f28419497f9722a3daafe3b4186f6b6457e060405160405180910390a35050565b600033905090565b6000819050919050565b61036581610352565b82525050565b6000602082019050610380600083018461035c565b92915050565b600073ffffffffffffffffffffffffffffffffffffffff82169050919050565b60006103b182610386565b9050919050565b6103c1816103a6565b82525050565b60006020820190506103dc60008301846103b8565b92915050565b600080fd5b6103f0816103a6565b81146103fb57600080fd5b50565b60008135905061040d816103e7565b92915050565b600060208284031215610429576104286103e2565b5b6000610437848285016103fe565b91505092915050565b7f4e487b7100000000000000000000000000000000000000000000000000000000600052601160045260246000fd5b600061047a82610352565b915061048583610352565b925082820190508082111561049d5761049c610440565b5b9291505056fea264697066735822122038ebf389011515e7e82bb819c4182ad524a6bfda0b9c05a05869ed84680663cb64736f6c634300081b0033",
  "linkReferences": {},
  "deployedLinkReferences": {}
}