{
  "_format": "hh-sol-artifact-1",
  "contractName": "Rollup",
  "sourceName": "contracts/Rollup.sol",
  "abi": [
    {
      "anonymous": false,
      "inputs": [
        {
          "indexed": true,
          "internalType": "address",
          "name": "account",
          "type": "address"
        },
        {
          "indexed": false,
          "internalType": "uint256",
          "name": "amount",
          "type": "uint256"
        }
      ],
      "name": "Lock",
      "type": "event"
    },
    {
      "anonymous": false,
      "inputs": [
        {
          "indexed": true,
          "internalType": "address",
          "name": "account",
          "type": "address"
        },
        {
          "indexed": true,
          "internalType": "bytes32",
          "name": "root",
          "type": "bytes32"
        },
        {
          "indexed": true,
          "internalType": "bytes32",
          "name": "prev",
          "type": "bytes32"
        }
      ],
      "name": "Propose",
      "type": "event"
    },
    {
      "anonymous": false,
      "inputs": [
        {
          "indexed": true,
          "internalType": "address",
          "name": "account",
          "type": "address"
        },
        {
          "indexed": false,
          "internalType": "uint256",
          "name": "amount",
          "type": "uint256"
        }
      ],
      "name": "Unlock",
      "type": "event"
    },
    {
      "inputs": [
        {
          "internalType": "bytes32",
          "name": "root",
          "type": "bytes32"
        },
        {
          "components": [
            {
              "internalType": "bool[]",
              "name": "key",
              "type": "bool[]"
            },
            {
              "internalType": "bytes",
              "name": "value",
              "type": "bytes"
            }
          ],
          "internalType": "struct Node[]",
          "name": "prevStateProof",
          "type": "tuple[]"
        },
        {
          "components": [
            {
              "internalType": "bool[]",
              "name": "key",
              "type": "bool[]"
            },
            {
              "internalType": "bytes",
              "name": "value",
              "type": "bytes"
            }
          ],
          "internalType": "struct Node[]",
          "name": "txProof",
          "type": "tuple[]"
        },
        {
          "components": [
            {
              "internalType": "bool[]",
              "name": "key",
              "type": "bool[]"
            },
            {
              "internalType": "bytes",
              "name": "value",
              "type": "bytes"
            }
          ],
          "internalType": "struct Node[]",
          "name": "nextStateProof",
          "type": "tuple[]"
        }
      ],
      "name": "challenge",
      "outputs": [
        {
          "internalType": "bool",
          "name": "",
          "type": "bool"
        }
      ],
      "stateMutability": "nonpayable",
      "type": "function"
    },
    {
      "inputs": [],
      "name": "latest",
      "outputs": [
        {
          "internalType": "bytes32",
          "name": "",
          "type": "bytes32"
        }
      ],
      "stateMutability": "view",
      "type": "function"
    },
    {
      "inputs": [],
      "name": "lock",
      "outputs": [],
      "stateMutability": "payable",
      "type": "function"
    },
    {
      "inputs": [
        {
          "internalType": "bytes32",
          "name": "root",
          "type": "bytes32"
        },
        {
          "internalType": "bytes32",
          "name": "prev",
          "type": "bytes32"
        },
        {
          "components": [
            {
              "internalType": "address",
              "name": "from",
              "type": "address"
            },
            {
              "internalType": "address",
              "name": "to",
              "type": "address"
            },
            {
              "internalType": "uint256",
              "name": "amount",
              "type": "uint256"
            },
            {
              "internalType": "bytes32",
              "name": "witness",
              "type": "bytes32"
            }
          ],
          "internalType": "struct Tx[]",
          "name": "txs",
          "type": "tuple[]"
        }
      ],
      "name": "propose",
      "outputs": [],
      "stateMutability": "nonpayable",
      "type": "function"
    },
    {
      "inputs": [
        {
          "internalType": "uint256",
          "name": "amount",
          "type": "uint256"
        },
        {
          "internalType": "bytes32[]",
          "name": "proof",
          "type": "bytes32[]"
        }
      ],
      "name": "unlock",
      "outputs": [],
      "stateMutability": "nonpayable",
      "type": "function"
    }
  ],
  "bytecode": "0x608060405234602257600e6092565b60146026565b611aa56100be8239611aa590f35b602c565b60405190565b600080fd5b60001b90565b906042600019916031565b9181191691161790565b90565b90565b6061605d606592604c565b6031565b604f565b90565b60001c90565b6075906068565b90565b9060886084608e926052565b606e565b82546037565b9055565b60bb7fab2344d27f94c1e4753f34becf3bbe88aea4caf33c2380c85b4e4ef6f286e6d160006078565b56fe60806040526004361015610013575b610474565b61001e60003561006d565b80633d9085c71461006857806352bfe78914610063578063bae352521461005e578063c1e64b54146100595763f83d08ba0361000e5761044b565b610414565b61034e565b610266565b6101bc565b60e01c90565b60405190565b600080fd5b600080fd5b600080fd5b90565b61009481610088565b0361009b57565b600080fd5b905035906100ad8261008b565b565b600080fd5b600080fd5b600080fd5b909182601f830112156100f85781359167ffffffffffffffff83116100f35760200192602083028401116100ee57565b6100b9565b6100b4565b6100af565b91909160808184031261018f5761011783600083016100a0565b92602082013567ffffffffffffffff811161018a57816101389184016100be565b929093604082013567ffffffffffffffff8111610185578361015b9184016100be565b929093606082013567ffffffffffffffff81116101805761017c92016100be565b9091565b610083565b610083565b610083565b61007e565b151590565b6101a290610194565b9052565b91906101ba90600060208501940190610199565b565b346101f3576101ef6101de6101d23660046100fd565b95949094939193610e87565b6101e6610073565b918291826101a6565b0390f35b610079565b600091031261020357565b61007e565b1c90565b90565b61021f9060086102249302610208565b61020c565b90565b90610232915461020f565b90565b610240600080610227565b90565b61024c90610088565b9052565b919061026490600060208501940190610243565b565b34610296576102763660046101f8565b610292610281610235565b610289610073565b91829182610250565b0390f35b610079565b90565b6102a78161029b565b036102ae57565b600080fd5b905035906102c08261029e565b565b909182601f830112156102fc5781359167ffffffffffffffff83116102f75760200192602083028401116102f257565b6100b9565b6100b4565b6100af565b9190916040818403126103435761031b83600083016102b3565b92602082013567ffffffffffffffff811161033e5761033a92016102c2565b9091565b610083565b61007e565b60000190565b3461037d57610367610361366004610301565b916112b5565b61036f610073565b8061037981610348565b0390f35b610079565b909182601f830112156103bc5781359167ffffffffffffffff83116103b75760200192608083028401116103b257565b6100b9565b6100b4565b6100af565b9160608383031261040f576103d982600085016100a0565b926103e783602083016100a0565b92604082013567ffffffffffffffff811161040a576104069201610382565b9091565b610083565b61007e565b34610446576104306104273660046103c1565b929190916114d6565b610438610073565b8061044281610348565b0390f35b610079565b6104563660046101f8565b61045e6114e4565b610466610073565b8061047081610348565b0390f35b600080fd5b600090565b61048790610088565b90565b906104949061047e565b600052602052604060002090565b60001c90565b6104b46104b9916104a2565b61020c565b90565b6104c690546104a8565b90565b601f801991011690565b634e487b7160e01b600052604160045260246000fd5b906104f3906104c9565b810190811067ffffffffffffffff82111761050d57604052565b6104d3565b9061052561051e610073565b92836104e9565b565b67ffffffffffffffff811161053f5760208091020190565b6104d3565b600080fd5b600080fd5b67ffffffffffffffff81116105665760208091020190565b6104d3565b61057481610194565b0361057b57565b600080fd5b9050359061058d8261056b565b565b909291926105a461059f8261054e565b610512565b93818552602080860192028301928184116105e157915b8383106105c85750505050565b602080916105d68486610580565b8152019201916105bb565b6100b9565b9080601f83011215610604578160206106019335910161058f565b90565b6100af565b600080fd5b67ffffffffffffffff811161062c576106286020916104c9565b0190565b6104d3565b90826000939282370152565b9092919261065261064d8261060e565b610512565b9381855260208501908284011161066e5761066c92610631565b565b610609565b9080601f830112156106915781602061068e9335910161063d565b90565b6100af565b919091604081840312610702576106ad6040610512565b92600082013567ffffffffffffffff81116106fd57816106ce9184016105e6565b6000850152602082013567ffffffffffffffff81116106f8576106f19201610673565b6020830152565b610549565b610549565b610544565b92919061071b61071682610527565b610512565b93818552602080860192028101918383116107725781905b838210610741575050505050565b813567ffffffffffffffff811161076d576020916107628784938701610696565b815201910190610733565b6100af565b6100b9565b610782913691610707565b90565b60209181520190565b60007f496e76616c69642070726f6f6600000000000000000000000000000000000000910152565b6107c3600d602092610785565b6107cc8161078e565b0190565b6107e690602081019060008183039101526107b6565b90565b156107f057565b6107f8610073565b62461bcd60e51b81528061080e600482016107d0565b0390fd5b906108589796959493929161085361084e846108498791610840600061083a60018a9061048a565b016104bc565b90929092610777565b611661565b6107e9565b61085b565b90565b9061088b979695949392916108866108818661087c89918690929092610777565b611661565b6107e9565b61088e565b90565b906108be979695949392916108b96108b4886108af8b918690929092610777565b611661565b6107e9565b610c60565b90565b634e487b7160e01b600052603260045260246000fd5b600080fd5b600080fd5b600080fd5b9035906001604003813603038212156108fd570190565b6108d7565b9082101561091c57602061091992028101906108e6565b90565b6108c1565b90565b90565b61093b61093661094092610921565b610924565b61029b565b90565b903590600160200381360303821215610985570180359067ffffffffffffffff82116109805760200191600182023603831361097b57565b6108e1565b6108dc565b6108d7565b5090565b1b90565b906109a06109a7918361098a565b9135610088565b90602081106109b5575b5090565b6109c8906000199060200360080261098e565b16386109b1565b6109e36109de6109e89261029b565b610924565b61029b565b90565b6109f76109fc916104a2565b6109cf565b90565b90565b610a16610a11610a1b926109ff565b610924565b61029b565b90565b600080fd5b600080fd5b90939293848311610a48578411610a43576001820201920390565b610a23565b610a1e565b6bffffffffffffffffffffffff191690565b90610a6d610a74918361098a565b9135610a4d565b9060148110610a82575b5090565b610aa0906bffffffffffffffffffffffff199060140360080261098e565b1638610a7e565b60601c90565b60018060a01b031690565b610acc610ac7610ad192610aad565b610924565b610aad565b90565b610ae0610ae591610aa7565b610ab8565b90565b610af190610ad4565b90565b90565b610b0b610b06610b1092610af4565b610924565b61029b565b90565b90565b610b2a610b25610b2f92610b13565b610924565b61029b565b90565b90565b610b49610b44610b4e92610b32565b610924565b61029b565b90565b610b5b6080610512565b90565b610b6790610aad565b90565b90610b7490610b5e565b9052565b90610b829061029b565b9052565b90610b9090610088565b9052565b610b9e905161029b565b90565b634e487b7160e01b600052601160045260246000fd5b610bc6610bcc9193929361029b565b9261029b565b8201809211610bd757565b610ba1565b60007f54686520626c6f636b20697320686f6e65737400000000000000000000000000910152565b610c116013602092610785565b610c1a81610bdc565b0190565b610c349060208101906000818303910152610c04565b90565b15610c3e57565b610c46610073565b62461bcd60e51b815280610c5c60048201610c1e565b0390fd5b610e699150610e61610e5c610e56610e4c610e829b610e7599610e3a610cbd610cb8610e7b9e9f9b610ca8610e6f9e610cb29260409d5090610ca26000610927565b91610902565b6020810190610943565b90610992565b6109eb565b9d610e31610d14610d0f610d09610cec610ce28887610cdc6000610927565b91610902565b6020810190610943565b600090610d03610cfd601493610927565b92610a02565b92610a28565b90610a5f565b610ae8565b93610e29610e0a610e04610de7610ddd610d77610d72610d6c610d4f610d458a8d610d3f6000610927565b91610902565b6020810190610943565b601490610d66610d60602893610a02565b92610af7565b92610a28565b90610a5f565b610ae8565b97610dcb610dc6610dc0610da3610d998b86610d936000610927565b91610902565b6020810190610943565b602890610dba610db4604893610af7565b92610b16565b92610a28565b90610992565b6109eb565b9690610dd76000610927565b91610902565b6020810190610943565b604890610dfe610df8606893610b16565b92610b35565b92610a28565b90610992565b93610e20610e16610b51565b9760008901610b6a565b60208701610b6a565b8a8501610b78565b60608301610b86565b9790610e466000610927565b91610902565b6020810190610943565b90610992565b6109eb565b969201610b94565b90610bb7565b9261029b565b9161029b565b1415610c37565b600190565b90610e9e969594939291610e99610479565b610812565b90565b5090565b90565b610ebc610eb7610ec192610ea5565b610924565b61029b565b90565b610ed3610ed99193929361029b565b9261029b565b8203918211610ee457565b610ba1565b9190811015610ef9576020020190565b6108c1565b35610f088161008b565b90565b610f1490610ab8565b90565b610f2090610f0b565b90565b90610f2d90610f17565b600052602052604060002090565b90610f459061047e565b600052602052604060002090565b60ff1690565b610f65610f6a916104a2565b610f53565b90565b610f779054610f59565b90565b60007f416c726561647920756e6c6f636b65642e000000000000000000000000000000910152565b610faf6011602092610785565b610fb881610f7a565b0190565b610fd29060208101906000818303910152610fa2565b90565b15610fdc57565b610fe4610073565b62461bcd60e51b815280610ffa60048201610fbc565b0390fd5b90565b61100d611012916104a2565b610ffe565b90565b61101f9054611001565b90565b90565b61103961103461103e92611022565b610924565b61029b565b90565b60007f5374696c6c20696e20746865206368616c6c656e67652077696e646f772e0000910152565b611076601e602092610785565b61107f81611041565b0190565b6110999060208101906000818303910152611069565b90565b156110a357565b6110ab610073565b62461bcd60e51b8152806110c160048201611083565b0390fd5b60001b90565b906110d760ff916110c5565b9181191691161790565b6110ea90610194565b90565b90565b9061110561110061110c926110e1565b6110ed565b82546110cb565b9055565b906111df926111c39161114a611145828461113f61112f868890610ea1565b6111396001610ea8565b90610ec4565b91610ee9565b610efe565b9361117a61117561116f61116a61116360023390610f23565b8990610f3b565b610f6d565b15610194565b610fd5565b6111be6111a66111966001611190818a9061048a565b01611015565b6111a0603c611025565b90610bb7565b6111b86111b24261029b565b9161029b565b1061109c565b611239565b6111da6001916111d560023390610f23565b610f3b565b6110f0565b565b6111ea90610ab8565b90565b6111f6906111e1565b90565b61120290610f0b565b90565b61120d610073565b3d6000823e3d90fd5b61121f9061029b565b9052565b919061123790600060208501940190611216565b565b915050600080808061125261124d336111ed565b6111f9565b85908282156112ac575bf1156112a757336112a26112907f6381d9813cabeb57471b5a7e05078e64845ccdb563146a6911d536f24ce960f192610f17565b92611299610073565b91829182611223565b0390a2565b611205565b506108fc61125c565b906112c09291611110565b565b60007f496e76616c6964206c617465737420626c6f636b2e0000000000000000000000910152565b6112f76015602092610785565b611300816112c2565b0190565b61131a90602081019060008183039101526112ea565b90565b1561132457565b61132c610073565b62461bcd60e51b81528061134260048201611304565b0390fd5b90611353600019916110c5565b9181191691161790565b611366906104a2565b90565b9061137e6113796113859261047e565b61135d565b8254611346565b9055565b91926113c5936113be92846113b9826113b36113ad6113a860006104bc565b610088565b91610088565b1461131d565b611445565b6000611369565b565b6113d16040610512565b90565b6113de9051610088565b90565b90565b906113f96113f4611400926109cf565b6113e1565b8254611346565b9055565b90611431602060016114379461142960008201611423600088016113d4565b90611369565b019201610b94565b906113e4565b565b9061144391611404565b565b925090506114808161146f4261146661145c6113c7565b9360008501610b86565b60208301610b78565b61147b6001859061048a565b611439565b33916114be6114b86114b27ffd348793f3c403f3702bc8244618c1bcc015b04a066230667b8b5e4e14512a8795610f17565b9261047e565b9261047e565b926114c7610073565b806114d181610348565b0390a4565b906114e2939291611389565b565b3334906115266115147f625fed9875dada8643f2418b838ae0bc78d9a148a18eee4ee1979ff0f3f5d42792610f17565b9261151d610073565b91829182611223565b0390a2565b5190565b60007f496e76616c69642070726f6f662e000000000000000000000000000000000000910152565b611564600e602092610785565b61156d8161152f565b0190565b6115879060208101906000818303910152611557565b90565b906115948261152b565b8110156115a5576020809102010190565b6108c1565b5190565b60200190565b6115ce6115c96115c3836115aa565b926115ae565b6113d4565b90602081106115dc575b5090565b6115ef906000199060200360080261098e565b16386115d8565b606090565b6001611607910161029b565b90565b5190565b906116188261160a565b811015611629576020809102010190565b6108c1565b6116389051610194565b90565b9061164590610194565b9052565b606090565b6116586040610512565b90565b52565b52565b611669610479565b506116738161152b565b6116866116806000610927565b9161029b565b1461192e576116948161152b565b6116a76116a16001610ea8565b9161029b565b146118f7576116b46115f6565b926116bf6000610927565b5b806116ee6116e86116e36116d38761152b565b6116dd6001610ea8565b90610ec4565b61029b565b9161029b565b10156117415761173c9061173761172561172060006117168861171083610927565b9061158a565b510151849061160e565b61162e565b611732889184909261160e565b61163b565b6115fb565b6116c0565b5092611788611783600061175e8561175883610927565b9061158a565b51015161177d61176d8661152b565b6117776001610ea8565b90610ec4565b9061160e565b61162e565b906117938215610194565b6000146118da576117ba6117b1846117ab6000610927565b9061158a565b515b9215610194565b6000146118c0576117d5836117cf6001610ea8565b9061158a565b515b6117df611649565b916117ea6000610927565b5b806118066118006117fb8961152b565b61029b565b9161029b565b10156118ad578061187f9161182461181e6000610927565b9161029b565b14600014611884576118778361186461184660208a0151602089015190611a3e565b61185b61185161164e565b936000850161165b565b6020830161165e565b868391611871838361158a565b5261158a565b51505b6115fb565b6117eb565b6118a661189288839061158a565b518683916118a0838361158a565b5261158a565b515061187a565b50505090506118bd929150611661565b90565b6118d4836118ce6000610927565b9061158a565b516117d7565b6117ba6118f1846118eb6001610ea8565b9061158a565b516117b3565b61192461191e602061191661192a946119106000610927565b9061158a565b5101516115b4565b92610088565b91610088565b1490565b611936610073565b62461bcd60e51b81528061194c60048201611571565b0390fd5b606090565b905090565b60005b83811061196e575050906000910152565b80602091830151818501520161195d565b6119a461199b92602092611992816115aa565b94858093611955565b9384910161195a565b0190565b6119b6906119bc939261197f565b9061197f565b90565b6119de92916119ea916119d0610073565b9485926020840192836119a8565b908103825203836104e9565b565b90565b6119fb611a0091610088565b6119ec565b9052565b611a10816020936119ef565b0190565b90611a3c611a20610073565b8093611a30602083019182611a04565b908103825203836104e9565b565b611a6c91611a5491611a4e611950565b506119bf565b611a66611a60826115aa565b916115ae565b20611a14565b9056fea2646970667358221220a60e58d24bfa2bf5cdf4c1bc9cb82f8c761193aee3eade6e2330b66a157a8a3264736f6c634300081b0033",
  "linkReferences": {},
  "deployedLinkReferences": {}
}