{
  "contracts/Rollup.sol": {
    "Rollup": {
      "abi": [
        {
          "anonymous": false,
          "inputs": [
            {
              "indexed": true,
              "internalType": "address",
              "name": "account",
              "type": "address"
            },
            {
              "indexed": false,
              "internalType": "uint256",
              "name": "amount",
              "type": "uint256"
            }
          ],
          "name": "Lock",
          "type": "event"
        },
        {
          "anonymous": false,
          "inputs": [
            {
              "indexed": true,
              "internalType": "address",
              "name": "account",
              "type": "address"
            },
            {
              "indexed": true,
              "internalType": "bytes32",
              "name": "root",
              "type": "bytes32"
            },
            {
              "indexed": true,
              "internalType": "bytes32",
              "name": "prev",
              "type": "bytes32"
            }
          ],
          "name": "Propose",
          "type": "event"
        },
        {
          "anonymous": false,
          "inputs": [
            {
              "indexed": true,
              "internalType": "address",
              "name": "account",
              "type": "address"
            },
            {
              "indexed": false,
              "internalType": "uint256",
              "name": "amount",
              "type": "uint256"
            }
          ],
          "name": "Unlock",
          "type": "event"
        },
        {
          "inputs": [
            {
              "internalType": "bytes32",
              "name": "root",
              "type": "bytes32"
            },
            {
              "components": [
                {
                  "internalType": "bool[]",
                  "name": "key",
                  "type": "bool[]"
                },
                {
                  "internalType": "bytes",
                  "name": "value",
                  "type": "bytes"
                }
              ],
              "internalType": "struct Node[]",
              "name": "prevStateProof",
              "type": "tuple[]"
            },
            {
              "components": [
                {
                  "internalType": "bool[]",
                  "name": "key",
                  "type": "bool[]"
                },
                {
                  "internalType": "bytes",
                  "name": "value",
                  "type": "bytes"
                }
              ],
              "internalType": "struct Node[]",
              "name": "txProof",
              "type": "tuple[]"
            },
            {
              "components": [
                {
                  "internalType": "bool[]",
                  "name": "key",
                  "type": "bool[]"
                },
                {
                  "internalType": "bytes",
                  "name": "value",
                  "type": "bytes"
                }
              ],
              "internalType": "struct Node[]",
              "name": "nextStateProof",
              "type": "tuple[]"
            }
          ],
          "name": "challenge",
          "outputs": [
            {
              "internalType": "bool",
              "name": "",
              "type": "bool"
            }
          ],
          "stateMutability": "nonpayable",
          "type": "function"
        },
        {
          "inputs": [],
          "name": "latest",
          "outputs": [
            {
              "internalType": "bytes32",
              "name": "",
              "type": "bytes32"
            }
          ],
          "stateMutability": "view",
          "type": "function"
        },
        {
          "inputs": [],
          "name": "lock",
          "outputs": [],
          "stateMutability": "payable",
          "type": "function"
        },
        {
          "inputs": [
            {
              "internalType": "bytes32",
              "name": "root",
              "type": "bytes32"
            },
            {
              "internalType": "bytes32",
              "name": "prev",
              "type": "bytes32"
            },
            {
              "components": [
                {
                  "internalType": "address",
                  "name": "from",
                  "type": "address"
                },
                {
                  "internalType": "address",
                  "name": "to",
                  "type": "address"
                },
                {
                  "internalType": "uint256",
                  "name": "amount",
                  "type": "uint256"
                },
                {
                  "internalType": "bytes32",
                  "name": "witness",
                  "type": "bytes32"
                }
              ],
              "internalType": "struct Tx[]",
              "name": "txs",
              "type": "tuple[]"
            }
          ],
          "name": "propose",
          "outputs": [],
          "stateMutability": "nonpayable",
          "type": "function"
        },
        {
          "inputs": [
            {
              "internalType": "uint256",
              "name": "amount",
              "type": "uint256"
            },
            {
              "internalType": "bytes32[]",
              "name": "proof",
              "type": "bytes32[]"
            }
          ],
          "name": "unlock",
          "outputs": [],
          "stateMutability": "nonpayable",
          "type": "function"
        }
      ],
      "evm": {
        "bytecode": {
          "linkReferences": {},
          "object": "608060405234602257600e6092565b60146026565b611aa56100be8239611aa590f35b602c565b60405190565b600080fd5b60001b90565b906042600019916031565b9181191691161790565b90565b90565b6061605d606592604c565b6031565b604f565b90565b60001c90565b6075906068565b90565b9060886084608e926052565b606e565b82546037565b9055565b60bb7fab2344d27f94c1e4753f34becf3bbe88aea4caf33c2380c85b4e4ef6f286e6d160006078565b56fe60806040526004361015610013575b610474565b61001e60003561006d565b80633d9085c71461006857806352bfe78914610063578063bae352521461005e578063c1e64b54146100595763f83d08ba0361000e5761044b565b610414565b61034e565b610266565b6101bc565b60e01c90565b60405190565b600080fd5b600080fd5b600080fd5b90565b61009481610088565b0361009b57565b600080fd5b905035906100ad8261008b565b565b600080fd5b600080fd5b600080fd5b909182601f830112156100f85781359167ffffffffffffffff83116100f35760200192602083028401116100ee57565b6100b9565b6100b4565b6100af565b91909160808184031261018f5761011783600083016100a0565b92602082013567ffffffffffffffff811161018a57816101389184016100be565b929093604082013567ffffffffffffffff8111610185578361015b9184016100be565b929093606082013567ffffffffffffffff81116101805761017c92016100be565b9091565b610083565b610083565b610083565b61007e565b151590565b6101a290610194565b9052565b91906101ba90600060208501940190610199565b565b346101f3576101ef6101de6101d23660046100fd565b95949094939193610e87565b6101e6610073565b918291826101a6565b0390f35b610079565b600091031261020357565b61007e565b1c90565b90565b61021f9060086102249302610208565b61020c565b90565b90610232915461020f565b90565b610240600080610227565b90565b61024c90610088565b9052565b919061026490600060208501940190610243565b565b34610296576102763660046101f8565b610292610281610235565b610289610073565b91829182610250565b0390f35b610079565b90565b6102a78161029b565b036102ae57565b600080fd5b905035906102c08261029e565b565b909182601f830112156102fc5781359167ffffffffffffffff83116102f75760200192602083028401116102f257565b6100b9565b6100b4565b6100af565b9190916040818403126103435761031b83600083016102b3565b92602082013567ffffffffffffffff811161033e5761033a92016102c2565b9091565b610083565b61007e565b60000190565b3461037d57610367610361366004610301565b916112b5565b61036f610073565b8061037981610348565b0390f35b610079565b909182601f830112156103bc5781359167ffffffffffffffff83116103b75760200192608083028401116103b257565b6100b9565b6100b4565b6100af565b9160608383031261040f576103d982600085016100a0565b926103e783602083016100a0565b92604082013567ffffffffffffffff811161040a576104069201610382565b9091565b610083565b61007e565b34610446576104306104273660046103c1565b929190916114d6565b610438610073565b8061044281610348565b0390f35b610079565b6104563660046101f8565b61045e6114e4565b610466610073565b8061047081610348565b0390f35b600080fd5b600090565b61048790610088565b90565b906104949061047e565b600052602052604060002090565b60001c90565b6104b46104b9916104a2565b61020c565b90565b6104c690546104a8565b90565b601f801991011690565b634e487b7160e01b600052604160045260246000fd5b906104f3906104c9565b810190811067ffffffffffffffff82111761050d57604052565b6104d3565b9061052561051e610073565b92836104e9565b565b67ffffffffffffffff811161053f5760208091020190565b6104d3565b600080fd5b600080fd5b67ffffffffffffffff81116105665760208091020190565b6104d3565b61057481610194565b0361057b57565b600080fd5b9050359061058d8261056b565b565b909291926105a461059f8261054e565b610512565b93818552602080860192028301928184116105e157915b8383106105c85750505050565b602080916105d68486610580565b8152019201916105bb565b6100b9565b9080601f83011215610604578160206106019335910161058f565b90565b6100af565b600080fd5b67ffffffffffffffff811161062c576106286020916104c9565b0190565b6104d3565b90826000939282370152565b9092919261065261064d8261060e565b610512565b9381855260208501908284011161066e5761066c92610631565b565b610609565b9080601f830112156106915781602061068e9335910161063d565b90565b6100af565b919091604081840312610702576106ad6040610512565b92600082013567ffffffffffffffff81116106fd57816106ce9184016105e6565b6000850152602082013567ffffffffffffffff81116106f8576106f19201610673565b6020830152565b610549565b610549565b610544565b92919061071b61071682610527565b610512565b93818552602080860192028101918383116107725781905b838210610741575050505050565b813567ffffffffffffffff811161076d576020916107628784938701610696565b815201910190610733565b6100af565b6100b9565b610782913691610707565b90565b60209181520190565b60007f496e76616c69642070726f6f6600000000000000000000000000000000000000910152565b6107c3600d602092610785565b6107cc8161078e565b0190565b6107e690602081019060008183039101526107b6565b90565b156107f057565b6107f8610073565b62461bcd60e51b81528061080e600482016107d0565b0390fd5b906108589796959493929161085361084e846108498791610840600061083a60018a9061048a565b016104bc565b90929092610777565b611661565b6107e9565b61085b565b90565b9061088b979695949392916108866108818661087c89918690929092610777565b611661565b6107e9565b61088e565b90565b906108be979695949392916108b96108b4886108af8b918690929092610777565b611661565b6107e9565b610c60565b90565b634e487b7160e01b600052603260045260246000fd5b600080fd5b600080fd5b600080fd5b9035906001604003813603038212156108fd570190565b6108d7565b9082101561091c57602061091992028101906108e6565b90565b6108c1565b90565b90565b61093b61093661094092610921565b610924565b61029b565b90565b903590600160200381360303821215610985570180359067ffffffffffffffff82116109805760200191600182023603831361097b57565b6108e1565b6108dc565b6108d7565b5090565b1b90565b906109a06109a7918361098a565b9135610088565b90602081106109b5575b5090565b6109c8906000199060200360080261098e565b16386109b1565b6109e36109de6109e89261029b565b610924565b61029b565b90565b6109f76109fc916104a2565b6109cf565b90565b90565b610a16610a11610a1b926109ff565b610924565b61029b565b90565b600080fd5b600080fd5b90939293848311610a48578411610a43576001820201920390565b610a23565b610a1e565b6bffffffffffffffffffffffff191690565b90610a6d610a74918361098a565b9135610a4d565b9060148110610a82575b5090565b610aa0906bffffffffffffffffffffffff199060140360080261098e565b1638610a7e565b60601c90565b60018060a01b031690565b610acc610ac7610ad192610aad565b610924565b610aad565b90565b610ae0610ae591610aa7565b610ab8565b90565b610af190610ad4565b90565b90565b610b0b610b06610b1092610af4565b610924565b61029b565b90565b90565b610b2a610b25610b2f92610b13565b610924565b61029b565b90565b90565b610b49610b44610b4e92610b32565b610924565b61029b565b90565b610b5b6080610512565b90565b610b6790610aad565b90565b90610b7490610b5e565b9052565b90610b829061029b565b9052565b90610b9090610088565b9052565b610b9e905161029b565b90565b634e487b7160e01b600052601160045260246000fd5b610bc6610bcc9193929361029b565b9261029b565b8201809211610bd757565b610ba1565b60007f54686520626c6f636b20697320686f6e65737400000000000000000000000000910152565b610c116013602092610785565b610c1a81610bdc565b0190565b610c349060208101906000818303910152610c04565b90565b15610c3e57565b610c46610073565b62461bcd60e51b815280610c5c60048201610c1e565b0390fd5b610e699150610e61610e5c610e56610e4c610e829b610e7599610e3a610cbd610cb8610e7b9e9f9b610ca8610e6f9e610cb29260409d5090610ca26000610927565b91610902565b6020810190610943565b90610992565b6109eb565b9d610e31610d14610d0f610d09610cec610ce28887610cdc6000610927565b91610902565b6020810190610943565b600090610d03610cfd601493610927565b92610a02565b92610a28565b90610a5f565b610ae8565b93610e29610e0a610e04610de7610ddd610d77610d72610d6c610d4f610d458a8d610d3f6000610927565b91610902565b6020810190610943565b601490610d66610d60602893610a02565b92610af7565b92610a28565b90610a5f565b610ae8565b97610dcb610dc6610dc0610da3610d998b86610d936000610927565b91610902565b6020810190610943565b602890610dba610db4604893610af7565b92610b16565b92610a28565b90610992565b6109eb565b9690610dd76000610927565b91610902565b6020810190610943565b604890610dfe610df8606893610b16565b92610b35565b92610a28565b90610992565b93610e20610e16610b51565b9760008901610b6a565b60208701610b6a565b8a8501610b78565b60608301610b86565b9790610e466000610927565b91610902565b6020810190610943565b90610992565b6109eb565b969201610b94565b90610bb7565b9261029b565b9161029b565b1415610c37565b600190565b90610e9e969594939291610e99610479565b610812565b90565b5090565b90565b610ebc610eb7610ec192610ea5565b610924565b61029b565b90565b610ed3610ed99193929361029b565b9261029b565b8203918211610ee457565b610ba1565b9190811015610ef9576020020190565b6108c1565b35610f088161008b565b90565b610f1490610ab8565b90565b610f2090610f0b565b90565b90610f2d90610f17565b600052602052604060002090565b90610f459061047e565b600052602052604060002090565b60ff1690565b610f65610f6a916104a2565b610f53565b90565b610f779054610f59565b90565b60007f416c726561647920756e6c6f636b65642e000000000000000000000000000000910152565b610faf6011602092610785565b610fb881610f7a565b0190565b610fd29060208101906000818303910152610fa2565b90565b15610fdc57565b610fe4610073565b62461bcd60e51b815280610ffa60048201610fbc565b0390fd5b90565b61100d611012916104a2565b610ffe565b90565b61101f9054611001565b90565b90565b61103961103461103e92611022565b610924565b61029b565b90565b60007f5374696c6c20696e20746865206368616c6c656e67652077696e646f772e0000910152565b611076601e602092610785565b61107f81611041565b0190565b6110999060208101906000818303910152611069565b90565b156110a357565b6110ab610073565b62461bcd60e51b8152806110c160048201611083565b0390fd5b60001b90565b906110d760ff916110c5565b9181191691161790565b6110ea90610194565b90565b90565b9061110561110061110c926110e1565b6110ed565b82546110cb565b9055565b906111df926111c39161114a611145828461113f61112f868890610ea1565b6111396001610ea8565b90610ec4565b91610ee9565b610efe565b9361117a61117561116f61116a61116360023390610f23565b8990610f3b565b610f6d565b15610194565b610fd5565b6111be6111a66111966001611190818a9061048a565b01611015565b6111a0603c611025565b90610bb7565b6111b86111b24261029b565b9161029b565b1061109c565b611239565b6111da6001916111d560023390610f23565b610f3b565b6110f0565b565b6111ea90610ab8565b90565b6111f6906111e1565b90565b61120290610f0b565b90565b61120d610073565b3d6000823e3d90fd5b61121f9061029b565b9052565b919061123790600060208501940190611216565b565b915050600080808061125261124d336111ed565b6111f9565b85908282156112ac575bf1156112a757336112a26112907f6381d9813cabeb57471b5a7e05078e64845ccdb563146a6911d536f24ce960f192610f17565b92611299610073565b91829182611223565b0390a2565b611205565b506108fc61125c565b906112c09291611110565b565b60007f496e76616c6964206c617465737420626c6f636b2e0000000000000000000000910152565b6112f76015602092610785565b611300816112c2565b0190565b61131a90602081019060008183039101526112ea565b90565b1561132457565b61132c610073565b62461bcd60e51b81528061134260048201611304565b0390fd5b90611353600019916110c5565b9181191691161790565b611366906104a2565b90565b9061137e6113796113859261047e565b61135d565b8254611346565b9055565b91926113c5936113be92846113b9826113b36113ad6113a860006104bc565b610088565b91610088565b1461131d565b611445565b6000611369565b565b6113d16040610512565b90565b6113de9051610088565b90565b90565b906113f96113f4611400926109cf565b6113e1565b8254611346565b9055565b90611431602060016114379461142960008201611423600088016113d4565b90611369565b019201610b94565b906113e4565b565b9061144391611404565b565b925090506114808161146f4261146661145c6113c7565b9360008501610b86565b60208301610b78565b61147b6001859061048a565b611439565b33916114be6114b86114b27ffd348793f3c403f3702bc8244618c1bcc015b04a066230667b8b5e4e14512a8795610f17565b9261047e565b9261047e565b926114c7610073565b806114d181610348565b0390a4565b906114e2939291611389565b565b3334906115266115147f625fed9875dada8643f2418b838ae0bc78d9a148a18eee4ee1979ff0f3f5d42792610f17565b9261151d610073565b91829182611223565b0390a2565b5190565b60007f496e76616c69642070726f6f662e000000000000000000000000000000000000910152565b611564600e602092610785565b61156d8161152f565b0190565b6115879060208101906000818303910152611557565b90565b906115948261152b565b8110156115a5576020809102010190565b6108c1565b5190565b60200190565b6115ce6115c96115c3836115aa565b926115ae565b6113d4565b90602081106115dc575b5090565b6115ef906000199060200360080261098e565b16386115d8565b606090565b6001611607910161029b565b90565b5190565b906116188261160a565b811015611629576020809102010190565b6108c1565b6116389051610194565b90565b9061164590610194565b9052565b606090565b6116586040610512565b90565b52565b52565b611669610479565b506116738161152b565b6116866116806000610927565b9161029b565b1461192e576116948161152b565b6116a76116a16001610ea8565b9161029b565b146118f7576116b46115f6565b926116bf6000610927565b5b806116ee6116e86116e36116d38761152b565b6116dd6001610ea8565b90610ec4565b61029b565b9161029b565b10156117415761173c9061173761172561172060006117168861171083610927565b9061158a565b510151849061160e565b61162e565b611732889184909261160e565b61163b565b6115fb565b6116c0565b5092611788611783600061175e8561175883610927565b9061158a565b51015161177d61176d8661152b565b6117776001610ea8565b90610ec4565b9061160e565b61162e565b906117938215610194565b6000146118da576117ba6117b1846117ab6000610927565b9061158a565b515b9215610194565b6000146118c0576117d5836117cf6001610ea8565b9061158a565b515b6117df611649565b916117ea6000610927565b5b806118066118006117fb8961152b565b61029b565b9161029b565b10156118ad578061187f9161182461181e6000610927565b9161029b565b14600014611884576118778361186461184660208a0151602089015190611a3e565b61185b61185161164e565b936000850161165b565b6020830161165e565b868391611871838361158a565b5261158a565b51505b6115fb565b6117eb565b6118a661189288839061158a565b518683916118a0838361158a565b5261158a565b515061187a565b50505090506118bd929150611661565b90565b6118d4836118ce6000610927565b9061158a565b516117d7565b6117ba6118f1846118eb6001610ea8565b9061158a565b516117b3565b61192461191e602061191661192a946119106000610927565b9061158a565b5101516115b4565b92610088565b91610088565b1490565b611936610073565b62461bcd60e51b81528061194c60048201611571565b0390fd5b606090565b905090565b60005b83811061196e575050906000910152565b80602091830151818501520161195d565b6119a461199b92602092611992816115aa565b94858093611955565b9384910161195a565b0190565b6119b6906119bc939261197f565b9061197f565b90565b6119de92916119ea916119d0610073565b9485926020840192836119a8565b908103825203836104e9565b565b90565b6119fb611a0091610088565b6119ec565b9052565b611a10816020936119ef565b0190565b90611a3c611a20610073565b8093611a30602083019182611a04565b908103825203836104e9565b565b611a6c91611a5491611a4e611950565b506119bf565b611a66611a60826115aa565b916115ae565b20611a14565b9056fea2646970667358221220a60e58d24bfa2bf5cdf4c1bc9cb82f8c761193aee3eade6e2330b66a157a8a3264736f6c634300081b0033",
          "opcodes": "PUSH1 0x80 PUSH1 0x40 MSTORE CALLVALUE PUSH1 0x22 JUMPI PUSH1 0xE PUSH1 0x92 JUMP JUMPDEST PUSH1 0x14 PUSH1 0x26 JUMP JUMPDEST PUSH2 0x1AA5 PUSH2 0xBE DUP3 CODECOPY PUSH2 0x1AA5 SWAP1 RETURN JUMPDEST PUSH1 0x2C JUMP JUMPDEST PUSH1 0x40 MLOAD SWAP1 JUMP JUMPDEST PUSH1 0x0 DUP1 REVERT JUMPDEST PUSH1 0x0 SHL SWAP1 JUMP JUMPDEST SWAP1 PUSH1 0x42 PUSH1 0x0 NOT SWAP2 PUSH1 0x31 JUMP JUMPDEST SWAP2 DUP2 NOT AND SWAP2 AND OR SWAP1 JUMP JUMPDEST SWAP1 JUMP JUMPDEST SWAP1 JUMP JUMPDEST PUSH1 0x61 PUSH1 0x5D PUSH1 0x65 SWAP3 PUSH1 0x4C JUMP JUMPDEST PUSH1 0x31 JUMP JUMPDEST PUSH1 0x4F JUMP JUMPDEST SWAP1 JUMP JUMPDEST PUSH1 0x0 SHR SWAP1 JUMP JUMPDEST PUSH1 0x75 SWAP1 PUSH1 0x68 JUMP JUMPDEST SWAP1 JUMP JUMPDEST SWAP1 PUSH1 0x88 PUSH1 0x84 PUSH1 0x8E SWAP3 PUSH1 0x52 JUMP JUMPDEST PUSH1 0x6E JUMP JUMPDEST DUP3 SLOAD PUSH1 0x37 JUMP JUMPDEST SWAP1 SSTORE JUMP JUMPDEST PUSH1 0xBB PUSH32 0xAB2344D27F94C1E4753F34BECF3BBE88AEA4CAF33C2380C85B4E4EF6F286E6D1 PUSH1 0x0 PUSH1 0x78 JUMP JUMPDEST JUMP INVALID PUSH1 0x80 PUSH1 0x40 MSTORE PUSH1 0x4 CALLDATASIZE LT ISZERO PUSH2 0x13 JUMPI JUMPDEST PUSH2 0x474 JUMP JUMPDEST PUSH2 0x1E PUSH1 0x0 CALLDATALOAD PUSH2 0x6D JUMP JUMPDEST DUP1 PUSH4 0x3D9085C7 EQ PUSH2 0x68 JUMPI DUP1 PUSH4 0x52BFE789 EQ PUSH2 0x63 JUMPI DUP1 PUSH4 0xBAE35252 EQ PUSH2 0x5E JUMPI DUP1 PUSH4 0xC1E64B54 EQ PUSH2 0x59 JUMPI PUSH4 0xF83D08BA SUB PUSH2 0xE JUMPI PUSH2 0x44B JUMP JUMPDEST PUSH2 0x414 JUMP JUMPDEST PUSH2 0x34E JUMP JUMPDEST PUSH2 0x266 JUMP JUMPDEST PUSH2 0x1BC JUMP JUMPDEST PUSH1 0xE0 SHR SWAP1 JUMP JUMPDEST PUSH1 0x40 MLOAD SWAP1 JUMP JUMPDEST PUSH1 0x0 DUP1 REVERT JUMPDEST PUSH1 0x0 DUP1 REVERT JUMPDEST PUSH1 0x0 DUP1 REVERT JUMPDEST SWAP1 JUMP JUMPDEST PUSH2 0x94 DUP2 PUSH2 0x88 JUMP JUMPDEST SUB PUSH2 0x9B JUMPI JUMP JUMPDEST PUSH1 0x0 DUP1 REVERT JUMPDEST SWAP1 POP CALLDATALOAD SWAP1 PUSH2 0xAD DUP3 PUSH2 0x8B JUMP JUMPDEST JUMP JUMPDEST PUSH1 0x0 DUP1 REVERT JUMPDEST PUSH1 0x0 DUP1 REVERT JUMPDEST PUSH1 0x0 DUP1 REVERT JUMPDEST SWAP1 SWAP2 DUP3 PUSH1 0x1F DUP4 ADD SLT ISZERO PUSH2 0xF8 JUMPI DUP2 CALLDATALOAD SWAP2 PUSH8 0xFFFFFFFFFFFFFFFF DUP4 GT PUSH2 0xF3 JUMPI PUSH1 0x20 ADD SWAP3 PUSH1 0x20 DUP4 MUL DUP5 ADD GT PUSH2 0xEE JUMPI JUMP JUMPDEST PUSH2 0xB9 JUMP JUMPDEST PUSH2 0xB4 JUMP JUMPDEST PUSH2 0xAF JUMP JUMPDEST SWAP2 SWAP1 SWAP2 PUSH1 0x80 DUP2 DUP5 SUB SLT PUSH2 0x18F JUMPI PUSH2 0x117 DUP4 PUSH1 0x0 DUP4 ADD PUSH2 0xA0 JUMP JUMPDEST SWAP3 PUSH1 0x20 DUP3 ADD CALLDATALOAD PUSH8 0xFFFFFFFFFFFFFFFF DUP2 GT PUSH2 0x18A JUMPI DUP2 PUSH2 0x138 SWAP2 DUP5 ADD PUSH2 0xBE JUMP JUMPDEST SWAP3 SWAP1 SWAP4 PUSH1 0x40 DUP3 ADD CALLDATALOAD PUSH8 0xFFFFFFFFFFFFFFFF DUP2 GT PUSH2 0x185 JUMPI DUP4 PUSH2 0x15B SWAP2 DUP5 ADD PUSH2 0xBE JUMP JUMPDEST SWAP3 SWAP1 SWAP4 PUSH1 0x60 DUP3 ADD CALLDATALOAD PUSH8 0xFFFFFFFFFFFFFFFF DUP2 GT PUSH2 0x180 JUMPI PUSH2 0x17C SWAP3 ADD PUSH2 0xBE JUMP JUMPDEST SWAP1 SWAP2 JUMP JUMPDEST PUSH2 0x83 JUMP JUMPDEST PUSH2 0x83 JUMP JUMPDEST PUSH2 0x83 JUMP JUMPDEST PUSH2 0x7E JUMP JUMPDEST ISZERO ISZERO SWAP1 JUMP JUMPDEST PUSH2 0x1A2 SWAP1 PUSH2 0x194 JUMP JUMPDEST SWAP1 MSTORE JUMP JUMPDEST SWAP2 SWAP1 PUSH2 0x1BA SWAP1 PUSH1 0x0 PUSH1 0x20 DUP6 ADD SWAP5 ADD SWAP1 PUSH2 0x199 JUMP JUMPDEST JUMP JUMPDEST CALLVALUE PUSH2 0x1F3 JUMPI PUSH2 0x1EF PUSH2 0x1DE PUSH2 0x1D2 CALLDATASIZE PUSH1 0x4 PUSH2 0xFD JUMP JUMPDEST SWAP6 SWAP5 SWAP1 SWAP5 SWAP4 SWAP2 SWAP4 PUSH2 0xE87 JUMP JUMPDEST PUSH2 0x1E6 PUSH2 0x73 JUMP JUMPDEST SWAP2 DUP3 SWAP2 DUP3 PUSH2 0x1A6 JUMP JUMPDEST SUB SWAP1 RETURN JUMPDEST PUSH2 0x79 JUMP JUMPDEST PUSH1 0x0 SWAP2 SUB SLT PUSH2 0x203 JUMPI JUMP JUMPDEST PUSH2 0x7E JUMP JUMPDEST SHR SWAP1 JUMP JUMPDEST SWAP1 JUMP JUMPDEST PUSH2 0x21F SWAP1 PUSH1 0x8 PUSH2 0x224 SWAP4 MUL PUSH2 0x208 JUMP JUMPDEST PUSH2 0x20C JUMP JUMPDEST SWAP1 JUMP JUMPDEST SWAP1 PUSH2 0x232 SWAP2 SLOAD PUSH2 0x20F JUMP JUMPDEST SWAP1 JUMP JUMPDEST PUSH2 0x240 PUSH1 0x0 DUP1 PUSH2 0x227 JUMP JUMPDEST SWAP1 JUMP JUMPDEST PUSH2 0x24C SWAP1 PUSH2 0x88 JUMP JUMPDEST SWAP1 MSTORE JUMP JUMPDEST SWAP2 SWAP1 PUSH2 0x264 SWAP1 PUSH1 0x0 PUSH1 0x20 DUP6 ADD SWAP5 ADD SWAP1 PUSH2 0x243 JUMP JUMPDEST JUMP JUMPDEST CALLVALUE PUSH2 0x296 JUMPI PUSH2 0x276 CALLDATASIZE PUSH1 0x4 PUSH2 0x1F8 JUMP JUMPDEST PUSH2 0x292 PUSH2 0x281 PUSH2 0x235 JUMP JUMPDEST PUSH2 0x289 PUSH2 0x73 JUMP JUMPDEST SWAP2 DUP3 SWAP2 DUP3 PUSH2 0x250 JUMP JUMPDEST SUB SWAP1 RETURN JUMPDEST PUSH2 0x79 JUMP JUMPDEST SWAP1 JUMP JUMPDEST PUSH2 0x2A7 DUP2 PUSH2 0x29B JUMP JUMPDEST SUB PUSH2 0x2AE JUMPI JUMP JUMPDEST PUSH1 0x0 DUP1 REVERT JUMPDEST SWAP1 POP CALLDATALOAD SWAP1 PUSH2 0x2C0 DUP3 PUSH2 0x29E JUMP JUMPDEST JUMP JUMPDEST SWAP1 SWAP2 DUP3 PUSH1 0x1F DUP4 ADD SLT ISZERO PUSH2 0x2FC JUMPI DUP2 CALLDATALOAD SWAP2 PUSH8 0xFFFFFFFFFFFFFFFF DUP4 GT PUSH2 0x2F7 JUMPI PUSH1 0x20 ADD SWAP3 PUSH1 0x20 DUP4 MUL DUP5 ADD GT PUSH2 0x2F2 JUMPI JUMP JUMPDEST PUSH2 0xB9 JUMP JUMPDEST PUSH2 0xB4 JUMP JUMPDEST PUSH2 0xAF JUMP JUMPDEST SWAP2 SWAP1 SWAP2 PUSH1 0x40 DUP2 DUP5 SUB SLT PUSH2 0x343 JUMPI PUSH2 0x31B DUP4 PUSH1 0x0 DUP4 ADD PUSH2 0x2B3 JUMP JUMPDEST SWAP3 PUSH1 0x20 DUP3 ADD CALLDATALOAD PUSH8 0xFFFFFFFFFFFFFFFF DUP2 GT PUSH2 0x33E JUMPI PUSH2 0x33A SWAP3 ADD PUSH2 0x2C2 JUMP JUMPDEST SWAP1 SWAP2 JUMP JUMPDEST PUSH2 0x83 JUMP JUMPDEST PUSH2 0x7E JUMP JUMPDEST PUSH1 0x0 ADD SWAP1 JUMP JUMPDEST CALLVALUE PUSH2 0x37D JUMPI PUSH2 0x367 PUSH2 0x361 CALLDATASIZE PUSH1 0x4 PUSH2 0x301 JUMP JUMPDEST SWAP2 PUSH2 0x12B5 JUMP JUMPDEST PUSH2 0x36F PUSH2 0x73 JUMP JUMPDEST DUP1 PUSH2 0x379 DUP2 PUSH2 0x348 JUMP JUMPDEST SUB SWAP1 RETURN JUMPDEST PUSH2 0x79 JUMP JUMPDEST SWAP1 SWAP2 DUP3 PUSH1 0x1F DUP4 ADD SLT ISZERO PUSH2 0x3BC JUMPI DUP2 CALLDATALOAD SWAP2 PUSH8 0xFFFFFFFFFFFFFFFF DUP4 GT PUSH2 0x3B7 JUMPI PUSH1 0x20 ADD SWAP3 PUSH1 0x80 DUP4 MUL DUP5 ADD GT PUSH2 0x3B2 JUMPI JUMP JUMPDEST PUSH2 0xB9 JUMP JUMPDEST PUSH2 0xB4 JUMP JUMPDEST PUSH2 0xAF JUMP JUMPDEST SWAP2 PUSH1 0x60 DUP4 DUP4 SUB SLT PUSH2 0x40F JUMPI PUSH2 0x3D9 DUP3 PUSH1 0x0 DUP6 ADD PUSH2 0xA0 JUMP JUMPDEST SWAP3 PUSH2 0x3E7 DUP4 PUSH1 0x20 DUP4 ADD PUSH2 0xA0 JUMP JUMPDEST SWAP3 PUSH1 0x40 DUP3 ADD CALLDATALOAD PUSH8 0xFFFFFFFFFFFFFFFF DUP2 GT PUSH2 0x40A JUMPI PUSH2 0x406 SWAP3 ADD PUSH2 0x382 JUMP JUMPDEST SWAP1 SWAP2 JUMP JUMPDEST PUSH2 0x83 JUMP JUMPDEST PUSH2 0x7E JUMP JUMPDEST CALLVALUE PUSH2 0x446 JUMPI PUSH2 0x430 PUSH2 0x427 CALLDATASIZE PUSH1 0x4 PUSH2 0x3C1 JUMP JUMPDEST SWAP3 SWAP2 SWAP1 SWAP2 PUSH2 0x14D6 JUMP JUMPDEST PUSH2 0x438 PUSH2 0x73 JUMP JUMPDEST DUP1 PUSH2 0x442 DUP2 PUSH2 0x348 JUMP JUMPDEST SUB SWAP1 RETURN JUMPDEST PUSH2 0x79 JUMP JUMPDEST PUSH2 0x456 CALLDATASIZE PUSH1 0x4 PUSH2 0x1F8 JUMP JUMPDEST PUSH2 0x45E PUSH2 0x14E4 JUMP JUMPDEST PUSH2 0x466 PUSH2 0x73 JUMP JUMPDEST DUP1 PUSH2 0x470 DUP2 PUSH2 0x348 JUMP JUMPDEST SUB SWAP1 RETURN JUMPDEST PUSH1 0x0 DUP1 REVERT JUMPDEST PUSH1 0x0 SWAP1 JUMP JUMPDEST PUSH2 0x487 SWAP1 PUSH2 0x88 JUMP JUMPDEST SWAP1 JUMP JUMPDEST SWAP1 PUSH2 0x494 SWAP1 PUSH2 0x47E JUMP JUMPDEST PUSH1 0x0 MSTORE PUSH1 0x20 MSTORE PUSH1 0x40 PUSH1 0x0 KECCAK256 SWAP1 JUMP JUMPDEST PUSH1 0x0 SHR SWAP1 JUMP JUMPDEST PUSH2 0x4B4 PUSH2 0x4B9 SWAP2 PUSH2 0x4A2 JUMP JUMPDEST PUSH2 0x20C JUMP JUMPDEST SWAP1 JUMP JUMPDEST PUSH2 0x4C6 SWAP1 SLOAD PUSH2 0x4A8 JUMP JUMPDEST SWAP1 JUMP JUMPDEST PUSH1 0x1F DUP1 NOT SWAP2 ADD AND SWAP1 JUMP JUMPDEST PUSH4 0x4E487B71 PUSH1 0xE0 SHL PUSH1 0x0 MSTORE PUSH1 0x41 PUSH1 0x4 MSTORE PUSH1 0x24 PUSH1 0x0 REVERT JUMPDEST SWAP1 PUSH2 0x4F3 SWAP1 PUSH2 0x4C9 JUMP JUMPDEST DUP2 ADD SWAP1 DUP2 LT PUSH8 0xFFFFFFFFFFFFFFFF DUP3 GT OR PUSH2 0x50D JUMPI PUSH1 0x40 MSTORE JUMP JUMPDEST PUSH2 0x4D3 JUMP JUMPDEST SWAP1 PUSH2 0x525 PUSH2 0x51E PUSH2 0x73 JUMP JUMPDEST SWAP3 DUP4 PUSH2 0x4E9 JUMP JUMPDEST JUMP JUMPDEST PUSH8 0xFFFFFFFFFFFFFFFF DUP2 GT PUSH2 0x53F JUMPI PUSH1 0x20 DUP1 SWAP2 MUL ADD SWAP1 JUMP JUMPDEST PUSH2 0x4D3 JUMP JUMPDEST PUSH1 0x0 DUP1 REVERT JUMPDEST PUSH1 0x0 DUP1 REVERT JUMPDEST PUSH8 0xFFFFFFFFFFFFFFFF DUP2 GT PUSH2 0x566 JUMPI PUSH1 0x20 DUP1 SWAP2 MUL ADD SWAP1 JUMP JUMPDEST PUSH2 0x4D3 JUMP JUMPDEST PUSH2 0x574 DUP2 PUSH2 0x194 JUMP JUMPDEST SUB PUSH2 0x57B JUMPI JUMP JUMPDEST PUSH1 0x0 DUP1 REVERT JUMPDEST SWAP1 POP CALLDATALOAD SWAP1 PUSH2 0x58D DUP3 PUSH2 0x56B JUMP JUMPDEST JUMP JUMPDEST SWAP1 SWAP3 SWAP2 SWAP3 PUSH2 0x5A4 PUSH2 0x59F DUP3 PUSH2 0x54E JUMP JUMPDEST PUSH2 0x512 JUMP JUMPDEST SWAP4 DUP2 DUP6 MSTORE PUSH1 0x20 DUP1 DUP7 ADD SWAP3 MUL DUP4 ADD SWAP3 DUP2 DUP5 GT PUSH2 0x5E1 JUMPI SWAP2 JUMPDEST DUP4 DUP4 LT PUSH2 0x5C8 JUMPI POP POP POP POP JUMP JUMPDEST PUSH1 0x20 DUP1 SWAP2 PUSH2 0x5D6 DUP5 DUP7 PUSH2 0x580 JUMP JUMPDEST DUP2 MSTORE ADD SWAP3 ADD SWAP2 PUSH2 0x5BB JUMP JUMPDEST PUSH2 0xB9 JUMP JUMPDEST SWAP1 DUP1 PUSH1 0x1F DUP4 ADD SLT ISZERO PUSH2 0x604 JUMPI DUP2 PUSH1 0x20 PUSH2 0x601 SWAP4 CALLDATALOAD SWAP2 ADD PUSH2 0x58F JUMP JUMPDEST SWAP1 JUMP JUMPDEST PUSH2 0xAF JUMP JUMPDEST PUSH1 0x0 DUP1 REVERT JUMPDEST PUSH8 0xFFFFFFFFFFFFFFFF DUP2 GT PUSH2 0x62C JUMPI PUSH2 0x628 PUSH1 0x20 SWAP2 PUSH2 0x4C9 JUMP JUMPDEST ADD SWAP1 JUMP JUMPDEST PUSH2 0x4D3 JUMP JUMPDEST SWAP1 DUP3 PUSH1 0x0 SWAP4 SWAP3 DUP3 CALLDATACOPY ADD MSTORE JUMP JUMPDEST SWAP1 SWAP3 SWAP2 SWAP3 PUSH2 0x652 PUSH2 0x64D DUP3 PUSH2 0x60E JUMP JUMPDEST PUSH2 0x512 JUMP JUMPDEST SWAP4 DUP2 DUP6 MSTORE PUSH1 0x20 DUP6 ADD SWAP1 DUP3 DUP5 ADD GT PUSH2 0x66E JUMPI PUSH2 0x66C SWAP3 PUSH2 0x631 JUMP JUMPDEST JUMP JUMPDEST PUSH2 0x609 JUMP JUMPDEST SWAP1 DUP1 PUSH1 0x1F DUP4 ADD SLT ISZERO PUSH2 0x691 JUMPI DUP2 PUSH1 0x20 PUSH2 0x68E SWAP4 CALLDATALOAD SWAP2 ADD PUSH2 0x63D JUMP JUMPDEST SWAP1 JUMP JUMPDEST PUSH2 0xAF JUMP JUMPDEST SWAP2 SWAP1 SWAP2 PUSH1 0x40 DUP2 DUP5 SUB SLT PUSH2 0x702 JUMPI PUSH2 0x6AD PUSH1 0x40 PUSH2 0x512 JUMP JUMPDEST SWAP3 PUSH1 0x0 DUP3 ADD CALLDATALOAD PUSH8 0xFFFFFFFFFFFFFFFF DUP2 GT PUSH2 0x6FD JUMPI DUP2 PUSH2 0x6CE SWAP2 DUP5 ADD PUSH2 0x5E6 JUMP JUMPDEST PUSH1 0x0 DUP6 ADD MSTORE PUSH1 0x20 DUP3 ADD CALLDATALOAD PUSH8 0xFFFFFFFFFFFFFFFF DUP2 GT PUSH2 0x6F8 JUMPI PUSH2 0x6F1 SWAP3 ADD PUSH2 0x673 JUMP JUMPDEST PUSH1 0x20 DUP4 ADD MSTORE JUMP JUMPDEST PUSH2 0x549 JUMP JUMPDEST PUSH2 0x549 JUMP JUMPDEST PUSH2 0x544 JUMP JUMPDEST SWAP3 SWAP2 SWAP1 PUSH2 0x71B PUSH2 0x716 DUP3 PUSH2 0x527 JUMP JUMPDEST PUSH2 0x512 JUMP JUMPDEST SWAP4 DUP2 DUP6 MSTORE PUSH1 0x20 DUP1 DUP7 ADD SWAP3 MUL DUP2 ADD SWAP2 DUP4 DUP4 GT PUSH2 0x772 JUMPI DUP2 SWAP1 JUMPDEST DUP4 DUP3 LT PUSH2 0x741 JUMPI POP POP POP POP POP JUMP JUMPDEST DUP2 CALLDATALOAD PUSH8 0xFFFFFFFFFFFFFFFF DUP2 GT PUSH2 0x76D JUMPI PUSH1 0x20 SWAP2 PUSH2 0x762 DUP8 DUP5 SWAP4 DUP8 ADD PUSH2 0x696 JUMP JUMPDEST DUP2 MSTORE ADD SWAP2 ADD SWAP1 PUSH2 0x733 JUMP JUMPDEST PUSH2 0xAF JUMP JUMPDEST PUSH2 0xB9 JUMP JUMPDEST PUSH2 0x782 SWAP2 CALLDATASIZE SWAP2 PUSH2 0x707 JUMP JUMPDEST SWAP1 JUMP JUMPDEST PUSH1 0x20 SWAP2 DUP2 MSTORE ADD SWAP1 JUMP JUMPDEST PUSH1 0x0 PUSH32 0x496E76616C69642070726F6F6600000000000000000000000000000000000000 SWAP2 ADD MSTORE JUMP JUMPDEST PUSH2 0x7C3 PUSH1 0xD PUSH1 0x20 SWAP3 PUSH2 0x785 JUMP JUMPDEST PUSH2 0x7CC DUP2 PUSH2 0x78E JUMP JUMPDEST ADD SWAP1 JUMP JUMPDEST PUSH2 0x7E6 SWAP1 PUSH1 0x20 DUP2 ADD SWAP1 PUSH1 0x0 DUP2 DUP4 SUB SWAP2 ADD MSTORE PUSH2 0x7B6 JUMP JUMPDEST SWAP1 JUMP JUMPDEST ISZERO PUSH2 0x7F0 JUMPI JUMP JUMPDEST PUSH2 0x7F8 PUSH2 0x73 JUMP JUMPDEST PUSH3 0x461BCD PUSH1 0xE5 SHL DUP2 MSTORE DUP1 PUSH2 0x80E PUSH1 0x4 DUP3 ADD PUSH2 0x7D0 JUMP JUMPDEST SUB SWAP1 REVERT JUMPDEST SWAP1 PUSH2 0x858 SWAP8 SWAP7 SWAP6 SWAP5 SWAP4 SWAP3 SWAP2 PUSH2 0x853 PUSH2 0x84E DUP5 PUSH2 0x849 DUP8 SWAP2 PUSH2 0x840 PUSH1 0x0 PUSH2 0x83A PUSH1 0x1 DUP11 SWAP1 PUSH2 0x48A JUMP JUMPDEST ADD PUSH2 0x4BC JUMP JUMPDEST SWAP1 SWAP3 SWAP1 SWAP3 PUSH2 0x777 JUMP JUMPDEST PUSH2 0x1661 JUMP JUMPDEST PUSH2 0x7E9 JUMP JUMPDEST PUSH2 0x85B JUMP JUMPDEST SWAP1 JUMP JUMPDEST SWAP1 PUSH2 0x88B SWAP8 SWAP7 SWAP6 SWAP5 SWAP4 SWAP3 SWAP2 PUSH2 0x886 PUSH2 0x881 DUP7 PUSH2 0x87C DUP10 SWAP2 DUP7 SWAP1 SWAP3 SWAP1 SWAP3 PUSH2 0x777 JUMP JUMPDEST PUSH2 0x1661 JUMP JUMPDEST PUSH2 0x7E9 JUMP JUMPDEST PUSH2 0x88E JUMP JUMPDEST SWAP1 JUMP JUMPDEST SWAP1 PUSH2 0x8BE SWAP8 SWAP7 SWAP6 SWAP5 SWAP4 SWAP3 SWAP2 PUSH2 0x8B9 PUSH2 0x8B4 DUP9 PUSH2 0x8AF DUP12 SWAP2 DUP7 SWAP1 SWAP3 SWAP1 SWAP3 PUSH2 0x777 JUMP JUMPDEST PUSH2 0x1661 JUMP JUMPDEST PUSH2 0x7E9 JUMP JUMPDEST PUSH2 0xC60 JUMP JUMPDEST SWAP1 JUMP JUMPDEST PUSH4 0x4E487B71 PUSH1 0xE0 SHL PUSH1 0x0 MSTORE PUSH1 0x32 PUSH1 0x4 MSTORE PUSH1 0x24 PUSH1 0x0 REVERT JUMPDEST PUSH1 0x0 DUP1 REVERT JUMPDEST PUSH1 0x0 DUP1 REVERT JUMPDEST PUSH1 0x0 DUP1 REVERT JUMPDEST SWAP1 CALLDATALOAD SWAP1 PUSH1 0x1 PUSH1 0x40 SUB DUP2 CALLDATASIZE SUB SUB DUP3 SLT ISZERO PUSH2 0x8FD JUMPI ADD SWAP1 JUMP JUMPDEST PUSH2 0x8D7 JUMP JUMPDEST SWAP1 DUP3 LT ISZERO PUSH2 0x91C JUMPI PUSH1 0x20 PUSH2 0x919 SWAP3 MUL DUP2 ADD SWAP1 PUSH2 0x8E6 JUMP JUMPDEST SWAP1 JUMP JUMPDEST PUSH2 0x8C1 JUMP JUMPDEST SWAP1 JUMP JUMPDEST SWAP1 JUMP JUMPDEST PUSH2 0x93B PUSH2 0x936 PUSH2 0x940 SWAP3 PUSH2 0x921 JUMP JUMPDEST PUSH2 0x924 JUMP JUMPDEST PUSH2 0x29B JUMP JUMPDEST SWAP1 JUMP JUMPDEST SWAP1 CALLDATALOAD SWAP1 PUSH1 0x1 PUSH1 0x20 SUB DUP2 CALLDATASIZE SUB SUB DUP3 SLT ISZERO PUSH2 0x985 JUMPI ADD DUP1 CALLDATALOAD SWAP1 PUSH8 0xFFFFFFFFFFFFFFFF DUP3 GT PUSH2 0x980 JUMPI PUSH1 0x20 ADD SWAP2 PUSH1 0x1 DUP3 MUL CALLDATASIZE SUB DUP4 SGT PUSH2 0x97B JUMPI JUMP JUMPDEST PUSH2 0x8E1 JUMP JUMPDEST PUSH2 0x8DC JUMP JUMPDEST PUSH2 0x8D7 JUMP JUMPDEST POP SWAP1 JUMP JUMPDEST SHL SWAP1 JUMP JUMPDEST SWAP1 PUSH2 0x9A0 PUSH2 0x9A7 SWAP2 DUP4 PUSH2 0x98A JUMP JUMPDEST SWAP2 CALLDATALOAD PUSH2 0x88 JUMP JUMPDEST SWAP1 PUSH1 0x20 DUP2 LT PUSH2 0x9B5 JUMPI JUMPDEST POP SWAP1 JUMP JUMPDEST PUSH2 0x9C8 SWAP1 PUSH1 0x0 NOT SWAP1 PUSH1 0x20 SUB PUSH1 0x8 MUL PUSH2 0x98E JUMP JUMPDEST AND CODESIZE PUSH2 0x9B1 JUMP JUMPDEST PUSH2 0x9E3 PUSH2 0x9DE PUSH2 0x9E8 SWAP3 PUSH2 0x29B JUMP JUMPDEST PUSH2 0x924 JUMP JUMPDEST PUSH2 0x29B JUMP JUMPDEST SWAP1 JUMP JUMPDEST PUSH2 0x9F7 PUSH2 0x9FC SWAP2 PUSH2 0x4A2 JUMP JUMPDEST PUSH2 0x9CF JUMP JUMPDEST SWAP1 JUMP JUMPDEST SWAP1 JUMP JUMPDEST PUSH2 0xA16 PUSH2 0xA11 PUSH2 0xA1B SWAP3 PUSH2 0x9FF JUMP JUMPDEST PUSH2 0x924 JUMP JUMPDEST PUSH2 0x29B JUMP JUMPDEST SWAP1 JUMP JUMPDEST PUSH1 0x0 DUP1 REVERT JUMPDEST PUSH1 0x0 DUP1 REVERT JUMPDEST SWAP1 SWAP4 SWAP3 SWAP4 DUP5 DUP4 GT PUSH2 0xA48 JUMPI DUP5 GT PUSH2 0xA43 JUMPI PUSH1 0x1 DUP3 MUL ADD SWAP3 SUB SWAP1 JUMP JUMPDEST PUSH2 0xA23 JUMP JUMPDEST PUSH2 0xA1E JUMP JUMPDEST PUSH12 0xFFFFFFFFFFFFFFFFFFFFFFFF NOT AND SWAP1 JUMP JUMPDEST SWAP1 PUSH2 0xA6D PUSH2 0xA74 SWAP2 DUP4 PUSH2 0x98A JUMP JUMPDEST SWAP2 CALLDATALOAD PUSH2 0xA4D JUMP JUMPDEST SWAP1 PUSH1 0x14 DUP2 LT PUSH2 0xA82 JUMPI JUMPDEST POP SWAP1 JUMP JUMPDEST PUSH2 0xAA0 SWAP1 PUSH12 0xFFFFFFFFFFFFFFFFFFFFFFFF NOT SWAP1 PUSH1 0x14 SUB PUSH1 0x8 MUL PUSH2 0x98E JUMP JUMPDEST AND CODESIZE PUSH2 0xA7E JUMP JUMPDEST PUSH1 0x60 SHR SWAP1 JUMP JUMPDEST PUSH1 0x1 DUP1 PUSH1 0xA0 SHL SUB AND SWAP1 JUMP JUMPDEST PUSH2 0xACC PUSH2 0xAC7 PUSH2 0xAD1 SWAP3 PUSH2 0xAAD JUMP JUMPDEST PUSH2 0x924 JUMP JUMPDEST PUSH2 0xAAD JUMP JUMPDEST SWAP1 JUMP JUMPDEST PUSH2 0xAE0 PUSH2 0xAE5 SWAP2 PUSH2 0xAA7 JUMP JUMPDEST PUSH2 0xAB8 JUMP JUMPDEST SWAP1 JUMP JUMPDEST PUSH2 0xAF1 SWAP1 PUSH2 0xAD4 JUMP JUMPDEST SWAP1 JUMP JUMPDEST SWAP1 JUMP JUMPDEST PUSH2 0xB0B PUSH2 0xB06 PUSH2 0xB10 SWAP3 PUSH2 0xAF4 JUMP JUMPDEST PUSH2 0x924 JUMP JUMPDEST PUSH2 0x29B JUMP JUMPDEST SWAP1 JUMP JUMPDEST SWAP1 JUMP JUMPDEST PUSH2 0xB2A PUSH2 0xB25 PUSH2 0xB2F SWAP3 PUSH2 0xB13 JUMP JUMPDEST PUSH2 0x924 JUMP JUMPDEST PUSH2 0x29B JUMP JUMPDEST SWAP1 JUMP JUMPDEST SWAP1 JUMP JUMPDEST PUSH2 0xB49 PUSH2 0xB44 PUSH2 0xB4E SWAP3 PUSH2 0xB32 JUMP JUMPDEST PUSH2 0x924 JUMP JUMPDEST PUSH2 0x29B JUMP JUMPDEST SWAP1 JUMP JUMPDEST PUSH2 0xB5B PUSH1 0x80 PUSH2 0x512 JUMP JUMPDEST SWAP1 JUMP JUMPDEST PUSH2 0xB67 SWAP1 PUSH2 0xAAD JUMP JUMPDEST SWAP1 JUMP JUMPDEST SWAP1 PUSH2 0xB74 SWAP1 PUSH2 0xB5E JUMP JUMPDEST SWAP1 MSTORE JUMP JUMPDEST SWAP1 PUSH2 0xB82 SWAP1 PUSH2 0x29B JUMP JUMPDEST SWAP1 MSTORE JUMP JUMPDEST SWAP1 PUSH2 0xB90 SWAP1 PUSH2 0x88 JUMP JUMPDEST SWAP1 MSTORE JUMP JUMPDEST PUSH2 0xB9E SWAP1 MLOAD PUSH2 0x29B JUMP JUMPDEST SWAP1 JUMP JUMPDEST PUSH4 0x4E487B71 PUSH1 0xE0 SHL PUSH1 0x0 MSTORE PUSH1 0x11 PUSH1 0x4 MSTORE PUSH1 0x24 PUSH1 0x0 REVERT JUMPDEST PUSH2 0xBC6 PUSH2 0xBCC SWAP2 SWAP4 SWAP3 SWAP4 PUSH2 0x29B JUMP JUMPDEST SWAP3 PUSH2 0x29B JUMP JUMPDEST DUP3 ADD DUP1 SWAP3 GT PUSH2 0xBD7 JUMPI JUMP JUMPDEST PUSH2 0xBA1 JUMP JUMPDEST PUSH1 0x0 PUSH32 0x54686520626C6F636B20697320686F6E65737400000000000000000000000000 SWAP2 ADD MSTORE JUMP JUMPDEST PUSH2 0xC11 PUSH1 0x13 PUSH1 0x20 SWAP3 PUSH2 0x785 JUMP JUMPDEST PUSH2 0xC1A DUP2 PUSH2 0xBDC JUMP JUMPDEST ADD SWAP1 JUMP JUMPDEST PUSH2 0xC34 SWAP1 PUSH1 0x20 DUP2 ADD SWAP1 PUSH1 0x0 DUP2 DUP4 SUB SWAP2 ADD MSTORE PUSH2 0xC04 JUMP JUMPDEST SWAP1 JUMP JUMPDEST ISZERO PUSH2 0xC3E JUMPI JUMP JUMPDEST PUSH2 0xC46 PUSH2 0x73 JUMP JUMPDEST PUSH3 0x461BCD PUSH1 0xE5 SHL DUP2 MSTORE DUP1 PUSH2 0xC5C PUSH1 0x4 DUP3 ADD PUSH2 0xC1E JUMP JUMPDEST SUB SWAP1 REVERT JUMPDEST PUSH2 0xE69 SWAP2 POP PUSH2 0xE61 PUSH2 0xE5C PUSH2 0xE56 PUSH2 0xE4C PUSH2 0xE82 SWAP12 PUSH2 0xE75 SWAP10 PUSH2 0xE3A PUSH2 0xCBD PUSH2 0xCB8 PUSH2 0xE7B SWAP15 SWAP16 SWAP12 PUSH2 0xCA8 PUSH2 0xE6F SWAP15 PUSH2 0xCB2 SWAP3 PUSH1 0x40 SWAP14 POP SWAP1 PUSH2 0xCA2 PUSH1 0x0 PUSH2 0x927 JUMP JUMPDEST SWAP2 PUSH2 0x902 JUMP JUMPDEST PUSH1 0x20 DUP2 ADD SWAP1 PUSH2 0x943 JUMP JUMPDEST SWAP1 PUSH2 0x992 JUMP JUMPDEST PUSH2 0x9EB JUMP JUMPDEST SWAP14 PUSH2 0xE31 PUSH2 0xD14 PUSH2 0xD0F PUSH2 0xD09 PUSH2 0xCEC PUSH2 0xCE2 DUP9 DUP8 PUSH2 0xCDC PUSH1 0x0 PUSH2 0x927 JUMP JUMPDEST SWAP2 PUSH2 0x902 JUMP JUMPDEST PUSH1 0x20 DUP2 ADD SWAP1 PUSH2 0x943 JUMP JUMPDEST PUSH1 0x0 SWAP1 PUSH2 0xD03 PUSH2 0xCFD PUSH1 0x14 SWAP4 PUSH2 0x927 JUMP JUMPDEST SWAP3 PUSH2 0xA02 JUMP JUMPDEST SWAP3 PUSH2 0xA28 JUMP JUMPDEST SWAP1 PUSH2 0xA5F JUMP JUMPDEST PUSH2 0xAE8 JUMP JUMPDEST SWAP4 PUSH2 0xE29 PUSH2 0xE0A PUSH2 0xE04 PUSH2 0xDE7 PUSH2 0xDDD PUSH2 0xD77 PUSH2 0xD72 PUSH2 0xD6C PUSH2 0xD4F PUSH2 0xD45 DUP11 DUP14 PUSH2 0xD3F PUSH1 0x0 PUSH2 0x927 JUMP JUMPDEST SWAP2 PUSH2 0x902 JUMP JUMPDEST PUSH1 0x20 DUP2 ADD SWAP1 PUSH2 0x943 JUMP JUMPDEST PUSH1 0x14 SWAP1 PUSH2 0xD66 PUSH2 0xD60 PUSH1 0x28 SWAP4 PUSH2 0xA02 JUMP JUMPDEST SWAP3 PUSH2 0xAF7 JUMP JUMPDEST SWAP3 PUSH2 0xA28 JUMP JUMPDEST SWAP1 PUSH2 0xA5F JUMP JUMPDEST PUSH2 0xAE8 JUMP JUMPDEST SWAP8 PUSH2 0xDCB PUSH2 0xDC6 PUSH2 0xDC0 PUSH2 0xDA3 PUSH2 0xD99 DUP12 DUP7 PUSH2 0xD93 PUSH1 0x0 PUSH2 0x927 JUMP JUMPDEST SWAP2 PUSH2 0x902 JUMP JUMPDEST PUSH1 0x20 DUP2 ADD SWAP1 PUSH2 0x943 JUMP JUMPDEST PUSH1 0x28 SWAP1 PUSH2 0xDBA PUSH2 0xDB4 PUSH1 0x48 SWAP4 PUSH2 0xAF7 JUMP JUMPDEST SWAP3 PUSH2 0xB16 JUMP JUMPDEST SWAP3 PUSH2 0xA28 JUMP JUMPDEST SWAP1 PUSH2 0x992 JUMP JUMPDEST PUSH2 0x9EB JUMP JUMPDEST SWAP7 SWAP1 PUSH2 0xDD7 PUSH1 0x0 PUSH2 0x927 JUMP JUMPDEST SWAP2 PUSH2 0x902 JUMP JUMPDEST PUSH1 0x20 DUP2 ADD SWAP1 PUSH2 0x943 JUMP JUMPDEST PUSH1 0x48 SWAP1 PUSH2 0xDFE PUSH2 0xDF8 PUSH1 0x68 SWAP4 PUSH2 0xB16 JUMP JUMPDEST SWAP3 PUSH2 0xB35 JUMP JUMPDEST SWAP3 PUSH2 0xA28 JUMP JUMPDEST SWAP1 PUSH2 0x992 JUMP JUMPDEST SWAP4 PUSH2 0xE20 PUSH2 0xE16 PUSH2 0xB51 JUMP JUMPDEST SWAP8 PUSH1 0x0 DUP10 ADD PUSH2 0xB6A JUMP JUMPDEST PUSH1 0x20 DUP8 ADD PUSH2 0xB6A JUMP JUMPDEST DUP11 DUP6 ADD PUSH2 0xB78 JUMP JUMPDEST PUSH1 0x60 DUP4 ADD PUSH2 0xB86 JUMP JUMPDEST SWAP8 SWAP1 PUSH2 0xE46 PUSH1 0x0 PUSH2 0x927 JUMP JUMPDEST SWAP2 PUSH2 0x902 JUMP JUMPDEST PUSH1 0x20 DUP2 ADD SWAP1 PUSH2 0x943 JUMP JUMPDEST SWAP1 PUSH2 0x992 JUMP JUMPDEST PUSH2 0x9EB JUMP JUMPDEST SWAP7 SWAP3 ADD PUSH2 0xB94 JUMP JUMPDEST SWAP1 PUSH2 0xBB7 JUMP JUMPDEST SWAP3 PUSH2 0x29B JUMP JUMPDEST SWAP2 PUSH2 0x29B JUMP JUMPDEST EQ ISZERO PUSH2 0xC37 JUMP JUMPDEST PUSH1 0x1 SWAP1 JUMP JUMPDEST SWAP1 PUSH2 0xE9E SWAP7 SWAP6 SWAP5 SWAP4 SWAP3 SWAP2 PUSH2 0xE99 PUSH2 0x479 JUMP JUMPDEST PUSH2 0x812 JUMP JUMPDEST SWAP1 JUMP JUMPDEST POP SWAP1 JUMP JUMPDEST SWAP1 JUMP JUMPDEST PUSH2 0xEBC PUSH2 0xEB7 PUSH2 0xEC1 SWAP3 PUSH2 0xEA5 JUMP JUMPDEST PUSH2 0x924 JUMP JUMPDEST PUSH2 0x29B JUMP JUMPDEST SWAP1 JUMP JUMPDEST PUSH2 0xED3 PUSH2 0xED9 SWAP2 SWAP4 SWAP3 SWAP4 PUSH2 0x29B JUMP JUMPDEST SWAP3 PUSH2 0x29B JUMP JUMPDEST DUP3 SUB SWAP2 DUP3 GT PUSH2 0xEE4 JUMPI JUMP JUMPDEST PUSH2 0xBA1 JUMP JUMPDEST SWAP2 SWAP1 DUP2 LT ISZERO PUSH2 0xEF9 JUMPI PUSH1 0x20 MUL ADD SWAP1 JUMP JUMPDEST PUSH2 0x8C1 JUMP JUMPDEST CALLDATALOAD PUSH2 0xF08 DUP2 PUSH2 0x8B JUMP JUMPDEST SWAP1 JUMP JUMPDEST PUSH2 0xF14 SWAP1 PUSH2 0xAB8 JUMP JUMPDEST SWAP1 JUMP JUMPDEST PUSH2 0xF20 SWAP1 PUSH2 0xF0B JUMP JUMPDEST SWAP1 JUMP JUMPDEST SWAP1 PUSH2 0xF2D SWAP1 PUSH2 0xF17 JUMP JUMPDEST PUSH1 0x0 MSTORE PUSH1 0x20 MSTORE PUSH1 0x40 PUSH1 0x0 KECCAK256 SWAP1 JUMP JUMPDEST SWAP1 PUSH2 0xF45 SWAP1 PUSH2 0x47E JUMP JUMPDEST PUSH1 0x0 MSTORE PUSH1 0x20 MSTORE PUSH1 0x40 PUSH1 0x0 KECCAK256 SWAP1 JUMP JUMPDEST PUSH1 0xFF AND SWAP1 JUMP JUMPDEST PUSH2 0xF65 PUSH2 0xF6A SWAP2 PUSH2 0x4A2 JUMP JUMPDEST PUSH2 0xF53 JUMP JUMPDEST SWAP1 JUMP JUMPDEST PUSH2 0xF77 SWAP1 SLOAD PUSH2 0xF59 JUMP JUMPDEST SWAP1 JUMP JUMPDEST PUSH1 0x0 PUSH32 0x416C726561647920756E6C6F636B65642E000000000000000000000000000000 SWAP2 ADD MSTORE JUMP JUMPDEST PUSH2 0xFAF PUSH1 0x11 PUSH1 0x20 SWAP3 PUSH2 0x785 JUMP JUMPDEST PUSH2 0xFB8 DUP2 PUSH2 0xF7A JUMP JUMPDEST ADD SWAP1 JUMP JUMPDEST PUSH2 0xFD2 SWAP1 PUSH1 0x20 DUP2 ADD SWAP1 PUSH1 0x0 DUP2 DUP4 SUB SWAP2 ADD MSTORE PUSH2 0xFA2 JUMP JUMPDEST SWAP1 JUMP JUMPDEST ISZERO PUSH2 0xFDC JUMPI JUMP JUMPDEST PUSH2 0xFE4 PUSH2 0x73 JUMP JUMPDEST PUSH3 0x461BCD PUSH1 0xE5 SHL DUP2 MSTORE DUP1 PUSH2 0xFFA PUSH1 0x4 DUP3 ADD PUSH2 0xFBC JUMP JUMPDEST SUB SWAP1 REVERT JUMPDEST SWAP1 JUMP JUMPDEST PUSH2 0x100D PUSH2 0x1012 SWAP2 PUSH2 0x4A2 JUMP JUMPDEST PUSH2 0xFFE JUMP JUMPDEST SWAP1 JUMP JUMPDEST PUSH2 0x101F SWAP1 SLOAD PUSH2 0x1001 JUMP JUMPDEST SWAP1 JUMP JUMPDEST SWAP1 JUMP JUMPDEST PUSH2 0x1039 PUSH2 0x1034 PUSH2 0x103E SWAP3 PUSH2 0x1022 JUMP JUMPDEST PUSH2 0x924 JUMP JUMPDEST PUSH2 0x29B JUMP JUMPDEST SWAP1 JUMP JUMPDEST PUSH1 0x0 PUSH32 0x5374696C6C20696E20746865206368616C6C656E67652077696E646F772E0000 SWAP2 ADD MSTORE JUMP JUMPDEST PUSH2 0x1076 PUSH1 0x1E PUSH1 0x20 SWAP3 PUSH2 0x785 JUMP JUMPDEST PUSH2 0x107F DUP2 PUSH2 0x1041 JUMP JUMPDEST ADD SWAP1 JUMP JUMPDEST PUSH2 0x1099 SWAP1 PUSH1 0x20 DUP2 ADD SWAP1 PUSH1 0x0 DUP2 DUP4 SUB SWAP2 ADD MSTORE PUSH2 0x1069 JUMP JUMPDEST SWAP1 JUMP JUMPDEST ISZERO PUSH2 0x10A3 JUMPI JUMP JUMPDEST PUSH2 0x10AB PUSH2 0x73 JUMP JUMPDEST PUSH3 0x461BCD PUSH1 0xE5 SHL DUP2 MSTORE DUP1 PUSH2 0x10C1 PUSH1 0x4 DUP3 ADD PUSH2 0x1083 JUMP JUMPDEST SUB SWAP1 REVERT JUMPDEST PUSH1 0x0 SHL SWAP1 JUMP JUMPDEST SWAP1 PUSH2 0x10D7 PUSH1 0xFF SWAP2 PUSH2 0x10C5 JUMP JUMPDEST SWAP2 DUP2 NOT AND SWAP2 AND OR SWAP1 JUMP JUMPDEST PUSH2 0x10EA SWAP1 PUSH2 0x194 JUMP JUMPDEST SWAP1 JUMP JUMPDEST SWAP1 JUMP JUMPDEST SWAP1 PUSH2 0x1105 PUSH2 0x1100 PUSH2 0x110C SWAP3 PUSH2 0x10E1 JUMP JUMPDEST PUSH2 0x10ED JUMP JUMPDEST DUP3 SLOAD PUSH2 0x10CB JUMP JUMPDEST SWAP1 SSTORE JUMP JUMPDEST SWAP1 PUSH2 0x11DF SWAP3 PUSH2 0x11C3 SWAP2 PUSH2 0x114A PUSH2 0x1145 DUP3 DUP5 PUSH2 0x113F PUSH2 0x112F DUP7 DUP9 SWAP1 PUSH2 0xEA1 JUMP JUMPDEST PUSH2 0x1139 PUSH1 0x1 PUSH2 0xEA8 JUMP JUMPDEST SWAP1 PUSH2 0xEC4 JUMP JUMPDEST SWAP2 PUSH2 0xEE9 JUMP JUMPDEST PUSH2 0xEFE JUMP JUMPDEST SWAP4 PUSH2 0x117A PUSH2 0x1175 PUSH2 0x116F PUSH2 0x116A PUSH2 0x1163 PUSH1 0x2 CALLER SWAP1 PUSH2 0xF23 JUMP JUMPDEST DUP10 SWAP1 PUSH2 0xF3B JUMP JUMPDEST PUSH2 0xF6D JUMP JUMPDEST ISZERO PUSH2 0x194 JUMP JUMPDEST PUSH2 0xFD5 JUMP JUMPDEST PUSH2 0x11BE PUSH2 0x11A6 PUSH2 0x1196 PUSH1 0x1 PUSH2 0x1190 DUP2 DUP11 SWAP1 PUSH2 0x48A JUMP JUMPDEST ADD PUSH2 0x1015 JUMP JUMPDEST PUSH2 0x11A0 PUSH1 0x3C PUSH2 0x1025 JUMP JUMPDEST SWAP1 PUSH2 0xBB7 JUMP JUMPDEST PUSH2 0x11B8 PUSH2 0x11B2 TIMESTAMP PUSH2 0x29B JUMP JUMPDEST SWAP2 PUSH2 0x29B JUMP JUMPDEST LT PUSH2 0x109C JUMP JUMPDEST PUSH2 0x1239 JUMP JUMPDEST PUSH2 0x11DA PUSH1 0x1 SWAP2 PUSH2 0x11D5 PUSH1 0x2 CALLER SWAP1 PUSH2 0xF23 JUMP JUMPDEST PUSH2 0xF3B JUMP JUMPDEST PUSH2 0x10F0 JUMP JUMPDEST JUMP JUMPDEST PUSH2 0x11EA SWAP1 PUSH2 0xAB8 JUMP JUMPDEST SWAP1 JUMP JUMPDEST PUSH2 0x11F6 SWAP1 PUSH2 0x11E1 JUMP JUMPDEST SWAP1 JUMP JUMPDEST PUSH2 0x1202 SWAP1 PUSH2 0xF0B JUMP JUMPDEST SWAP1 JUMP JUMPDEST PUSH2 0x120D PUSH2 0x73 JUMP JUMPDEST RETURNDATASIZE PUSH1 0x0 DUP3 RETURNDATACOPY RETURNDATASIZE SWAP1 REVERT JUMPDEST PUSH2 0x121F SWAP1 PUSH2 0x29B JUMP JUMPDEST SWAP1 MSTORE JUMP JUMPDEST SWAP2 SWAP1 PUSH2 0x1237 SWAP1 PUSH1 0x0 PUSH1 0x20 DUP6 ADD SWAP5 ADD SWAP1 PUSH2 0x1216 JUMP JUMPDEST JUMP JUMPDEST SWAP2 POP POP PUSH1 0x0 DUP1 DUP1 DUP1 PUSH2 0x1252 PUSH2 0x124D CALLER PUSH2 0x11ED JUMP JUMPDEST PUSH2 0x11F9 JUMP JUMPDEST DUP6 SWAP1 DUP3 DUP3 ISZERO PUSH2 0x12AC JUMPI JUMPDEST CALL ISZERO PUSH2 0x12A7 JUMPI CALLER PUSH2 0x12A2 PUSH2 0x1290 PUSH32 0x6381D9813CABEB57471B5A7E05078E64845CCDB563146A6911D536F24CE960F1 SWAP3 PUSH2 0xF17 JUMP JUMPDEST SWAP3 PUSH2 0x1299 PUSH2 0x73 JUMP JUMPDEST SWAP2 DUP3 SWAP2 DUP3 PUSH2 0x1223 JUMP JUMPDEST SUB SWAP1 LOG2 JUMP JUMPDEST PUSH2 0x1205 JUMP JUMPDEST POP PUSH2 0x8FC PUSH2 0x125C JUMP JUMPDEST SWAP1 PUSH2 0x12C0 SWAP3 SWAP2 PUSH2 0x1110 JUMP JUMPDEST JUMP JUMPDEST PUSH1 0x0 PUSH32 0x496E76616C6964206C617465737420626C6F636B2E0000000000000000000000 SWAP2 ADD MSTORE JUMP JUMPDEST PUSH2 0x12F7 PUSH1 0x15 PUSH1 0x20 SWAP3 PUSH2 0x785 JUMP JUMPDEST PUSH2 0x1300 DUP2 PUSH2 0x12C2 JUMP JUMPDEST ADD SWAP1 JUMP JUMPDEST PUSH2 0x131A SWAP1 PUSH1 0x20 DUP2 ADD SWAP1 PUSH1 0x0 DUP2 DUP4 SUB SWAP2 ADD MSTORE PUSH2 0x12EA JUMP JUMPDEST SWAP1 JUMP JUMPDEST ISZERO PUSH2 0x1324 JUMPI JUMP JUMPDEST PUSH2 0x132C PUSH2 0x73 JUMP JUMPDEST PUSH3 0x461BCD PUSH1 0xE5 SHL DUP2 MSTORE DUP1 PUSH2 0x1342 PUSH1 0x4 DUP3 ADD PUSH2 0x1304 JUMP JUMPDEST SUB SWAP1 REVERT JUMPDEST SWAP1 PUSH2 0x1353 PUSH1 0x0 NOT SWAP2 PUSH2 0x10C5 JUMP JUMPDEST SWAP2 DUP2 NOT AND SWAP2 AND OR SWAP1 JUMP JUMPDEST PUSH2 0x1366 SWAP1 PUSH2 0x4A2 JUMP JUMPDEST SWAP1 JUMP JUMPDEST SWAP1 PUSH2 0x137E PUSH2 0x1379 PUSH2 0x1385 SWAP3 PUSH2 0x47E JUMP JUMPDEST PUSH2 0x135D JUMP JUMPDEST DUP3 SLOAD PUSH2 0x1346 JUMP JUMPDEST SWAP1 SSTORE JUMP JUMPDEST SWAP2 SWAP3 PUSH2 0x13C5 SWAP4 PUSH2 0x13BE SWAP3 DUP5 PUSH2 0x13B9 DUP3 PUSH2 0x13B3 PUSH2 0x13AD PUSH2 0x13A8 PUSH1 0x0 PUSH2 0x4BC JUMP JUMPDEST PUSH2 0x88 JUMP JUMPDEST SWAP2 PUSH2 0x88 JUMP JUMPDEST EQ PUSH2 0x131D JUMP JUMPDEST PUSH2 0x1445 JUMP JUMPDEST PUSH1 0x0 PUSH2 0x1369 JUMP JUMPDEST JUMP JUMPDEST PUSH2 0x13D1 PUSH1 0x40 PUSH2 0x512 JUMP JUMPDEST SWAP1 JUMP JUMPDEST PUSH2 0x13DE SWAP1 MLOAD PUSH2 0x88 JUMP JUMPDEST SWAP1 JUMP JUMPDEST SWAP1 JUMP JUMPDEST SWAP1 PUSH2 0x13F9 PUSH2 0x13F4 PUSH2 0x1400 SWAP3 PUSH2 0x9CF JUMP JUMPDEST PUSH2 0x13E1 JUMP JUMPDEST DUP3 SLOAD PUSH2 0x1346 JUMP JUMPDEST SWAP1 SSTORE JUMP JUMPDEST SWAP1 PUSH2 0x1431 PUSH1 0x20 PUSH1 0x1 PUSH2 0x1437 SWAP5 PUSH2 0x1429 PUSH1 0x0 DUP3 ADD PUSH2 0x1423 PUSH1 0x0 DUP9 ADD PUSH2 0x13D4 JUMP JUMPDEST SWAP1 PUSH2 0x1369 JUMP JUMPDEST ADD SWAP3 ADD PUSH2 0xB94 JUMP JUMPDEST SWAP1 PUSH2 0x13E4 JUMP JUMPDEST JUMP JUMPDEST SWAP1 PUSH2 0x1443 SWAP2 PUSH2 0x1404 JUMP JUMPDEST JUMP JUMPDEST SWAP3 POP SWAP1 POP PUSH2 0x1480 DUP2 PUSH2 0x146F TIMESTAMP PUSH2 0x1466 PUSH2 0x145C PUSH2 0x13C7 JUMP JUMPDEST SWAP4 PUSH1 0x0 DUP6 ADD PUSH2 0xB86 JUMP JUMPDEST PUSH1 0x20 DUP4 ADD PUSH2 0xB78 JUMP JUMPDEST PUSH2 0x147B PUSH1 0x1 DUP6 SWAP1 PUSH2 0x48A JUMP JUMPDEST PUSH2 0x1439 JUMP JUMPDEST CALLER SWAP2 PUSH2 0x14BE PUSH2 0x14B8 PUSH2 0x14B2 PUSH32 0xFD348793F3C403F3702BC8244618C1BCC015B04A066230667B8B5E4E14512A87 SWAP6 PUSH2 0xF17 JUMP JUMPDEST SWAP3 PUSH2 0x47E JUMP JUMPDEST SWAP3 PUSH2 0x47E JUMP JUMPDEST SWAP3 PUSH2 0x14C7 PUSH2 0x73 JUMP JUMPDEST DUP1 PUSH2 0x14D1 DUP2 PUSH2 0x348 JUMP JUMPDEST SUB SWAP1 LOG4 JUMP JUMPDEST SWAP1 PUSH2 0x14E2 SWAP4 SWAP3 SWAP2 PUSH2 0x1389 JUMP JUMPDEST JUMP JUMPDEST CALLER CALLVALUE SWAP1 PUSH2 0x1526 PUSH2 0x1514 PUSH32 0x625FED9875DADA8643F2418B838AE0BC78D9A148A18EEE4EE1979FF0F3F5D427 SWAP3 PUSH2 0xF17 JUMP JUMPDEST SWAP3 PUSH2 0x151D PUSH2 0x73 JUMP JUMPDEST SWAP2 DUP3 SWAP2 DUP3 PUSH2 0x1223 JUMP JUMPDEST SUB SWAP1 LOG2 JUMP JUMPDEST MLOAD SWAP1 JUMP JUMPDEST PUSH1 0x0 PUSH32 0x496E76616C69642070726F6F662E000000000000000000000000000000000000 SWAP2 ADD MSTORE JUMP JUMPDEST PUSH2 0x1564 PUSH1 0xE PUSH1 0x20 SWAP3 PUSH2 0x785 JUMP JUMPDEST PUSH2 0x156D DUP2 PUSH2 0x152F JUMP JUMPDEST ADD SWAP1 JUMP JUMPDEST PUSH2 0x1587 SWAP1 PUSH1 0x20 DUP2 ADD SWAP1 PUSH1 0x0 DUP2 DUP4 SUB SWAP2 ADD MSTORE PUSH2 0x1557 JUMP JUMPDEST SWAP1 JUMP JUMPDEST SWAP1 PUSH2 0x1594 DUP3 PUSH2 0x152B JUMP JUMPDEST DUP2 LT ISZERO PUSH2 0x15A5 JUMPI PUSH1 0x20 DUP1 SWAP2 MUL ADD ADD SWAP1 JUMP JUMPDEST PUSH2 0x8C1 JUMP JUMPDEST MLOAD SWAP1 JUMP JUMPDEST PUSH1 0x20 ADD SWAP1 JUMP JUMPDEST PUSH2 0x15CE PUSH2 0x15C9 PUSH2 0x15C3 DUP4 PUSH2 0x15AA JUMP JUMPDEST SWAP3 PUSH2 0x15AE JUMP JUMPDEST PUSH2 0x13D4 JUMP JUMPDEST SWAP1 PUSH1 0x20 DUP2 LT PUSH2 0x15DC JUMPI JUMPDEST POP SWAP1 JUMP JUMPDEST PUSH2 0x15EF SWAP1 PUSH1 0x0 NOT SWAP1 PUSH1 0x20 SUB PUSH1 0x8 MUL PUSH2 0x98E JUMP JUMPDEST AND CODESIZE PUSH2 0x15D8 JUMP JUMPDEST PUSH1 0x60 SWAP1 JUMP JUMPDEST PUSH1 0x1 PUSH2 0x1607 SWAP2 ADD PUSH2 0x29B JUMP JUMPDEST SWAP1 JUMP JUMPDEST MLOAD SWAP1 JUMP JUMPDEST SWAP1 PUSH2 0x1618 DUP3 PUSH2 0x160A JUMP JUMPDEST DUP2 LT ISZERO PUSH2 0x1629 JUMPI PUSH1 0x20 DUP1 SWAP2 MUL ADD ADD SWAP1 JUMP JUMPDEST PUSH2 0x8C1 JUMP JUMPDEST PUSH2 0x1638 SWAP1 MLOAD PUSH2 0x194 JUMP JUMPDEST SWAP1 JUMP JUMPDEST SWAP1 PUSH2 0x1645 SWAP1 PUSH2 0x194 JUMP JUMPDEST SWAP1 MSTORE JUMP JUMPDEST PUSH1 0x60 SWAP1 JUMP JUMPDEST PUSH2 0x1658 PUSH1 0x40 PUSH2 0x512 JUMP JUMPDEST SWAP1 JUMP JUMPDEST MSTORE JUMP JUMPDEST MSTORE JUMP JUMPDEST PUSH2 0x1669 PUSH2 0x479 JUMP JUMPDEST POP PUSH2 0x1673 DUP2 PUSH2 0x152B JUMP JUMPDEST PUSH2 0x1686 PUSH2 0x1680 PUSH1 0x0 PUSH2 0x927 JUMP JUMPDEST SWAP2 PUSH2 0x29B JUMP JUMPDEST EQ PUSH2 0x192E JUMPI PUSH2 0x1694 DUP2 PUSH2 0x152B JUMP JUMPDEST PUSH2 0x16A7 PUSH2 0x16A1 PUSH1 0x1 PUSH2 0xEA8 JUMP JUMPDEST SWAP2 PUSH2 0x29B JUMP JUMPDEST EQ PUSH2 0x18F7 JUMPI PUSH2 0x16B4 PUSH2 0x15F6 JUMP JUMPDEST SWAP3 PUSH2 0x16BF PUSH1 0x0 PUSH2 0x927 JUMP JUMPDEST JUMPDEST DUP1 PUSH2 0x16EE PUSH2 0x16E8 PUSH2 0x16E3 PUSH2 0x16D3 DUP8 PUSH2 0x152B JUMP JUMPDEST PUSH2 0x16DD PUSH1 0x1 PUSH2 0xEA8 JUMP JUMPDEST SWAP1 PUSH2 0xEC4 JUMP JUMPDEST PUSH2 0x29B JUMP JUMPDEST SWAP2 PUSH2 0x29B JUMP JUMPDEST LT ISZERO PUSH2 0x1741 JUMPI PUSH2 0x173C SWAP1 PUSH2 0x1737 PUSH2 0x1725 PUSH2 0x1720 PUSH1 0x0 PUSH2 0x1716 DUP9 PUSH2 0x1710 DUP4 PUSH2 0x927 JUMP JUMPDEST SWAP1 PUSH2 0x158A JUMP JUMPDEST MLOAD ADD MLOAD DUP5 SWAP1 PUSH2 0x160E JUMP JUMPDEST PUSH2 0x162E JUMP JUMPDEST PUSH2 0x1732 DUP9 SWAP2 DUP5 SWAP1 SWAP3 PUSH2 0x160E JUMP JUMPDEST PUSH2 0x163B JUMP JUMPDEST PUSH2 0x15FB JUMP JUMPDEST PUSH2 0x16C0 JUMP JUMPDEST POP SWAP3 PUSH2 0x1788 PUSH2 0x1783 PUSH1 0x0 PUSH2 0x175E DUP6 PUSH2 0x1758 DUP4 PUSH2 0x927 JUMP JUMPDEST SWAP1 PUSH2 0x158A JUMP JUMPDEST MLOAD ADD MLOAD PUSH2 0x177D PUSH2 0x176D DUP7 PUSH2 0x152B JUMP JUMPDEST PUSH2 0x1777 PUSH1 0x1 PUSH2 0xEA8 JUMP JUMPDEST SWAP1 PUSH2 0xEC4 JUMP JUMPDEST SWAP1 PUSH2 0x160E JUMP JUMPDEST PUSH2 0x162E JUMP JUMPDEST SWAP1 PUSH2 0x1793 DUP3 ISZERO PUSH2 0x194 JUMP JUMPDEST PUSH1 0x0 EQ PUSH2 0x18DA JUMPI PUSH2 0x17BA PUSH2 0x17B1 DUP5 PUSH2 0x17AB PUSH1 0x0 PUSH2 0x927 JUMP JUMPDEST SWAP1 PUSH2 0x158A JUMP JUMPDEST MLOAD JUMPDEST SWAP3 ISZERO PUSH2 0x194 JUMP JUMPDEST PUSH1 0x0 EQ PUSH2 0x18C0 JUMPI PUSH2 0x17D5 DUP4 PUSH2 0x17CF PUSH1 0x1 PUSH2 0xEA8 JUMP JUMPDEST SWAP1 PUSH2 0x158A JUMP JUMPDEST MLOAD JUMPDEST PUSH2 0x17DF PUSH2 0x1649 JUMP JUMPDEST SWAP2 PUSH2 0x17EA PUSH1 0x0 PUSH2 0x927 JUMP JUMPDEST JUMPDEST DUP1 PUSH2 0x1806 PUSH2 0x1800 PUSH2 0x17FB DUP10 PUSH2 0x152B JUMP JUMPDEST PUSH2 0x29B JUMP JUMPDEST SWAP2 PUSH2 0x29B JUMP JUMPDEST LT ISZERO PUSH2 0x18AD JUMPI DUP1 PUSH2 0x187F SWAP2 PUSH2 0x1824 PUSH2 0x181E PUSH1 0x0 PUSH2 0x927 JUMP JUMPDEST SWAP2 PUSH2 0x29B JUMP JUMPDEST EQ PUSH1 0x0 EQ PUSH2 0x1884 JUMPI PUSH2 0x1877 DUP4 PUSH2 0x1864 PUSH2 0x1846 PUSH1 0x20 DUP11 ADD MLOAD PUSH1 0x20 DUP10 ADD MLOAD SWAP1 PUSH2 0x1A3E JUMP JUMPDEST PUSH2 0x185B PUSH2 0x1851 PUSH2 0x164E JUMP JUMPDEST SWAP4 PUSH1 0x0 DUP6 ADD PUSH2 0x165B JUMP JUMPDEST PUSH1 0x20 DUP4 ADD PUSH2 0x165E JUMP JUMPDEST DUP7 DUP4 SWAP2 PUSH2 0x1871 DUP4 DUP4 PUSH2 0x158A JUMP JUMPDEST MSTORE PUSH2 0x158A JUMP JUMPDEST MLOAD POP JUMPDEST PUSH2 0x15FB JUMP JUMPDEST PUSH2 0x17EB JUMP JUMPDEST PUSH2 0x18A6 PUSH2 0x1892 DUP9 DUP4 SWAP1 PUSH2 0x158A JUMP JUMPDEST MLOAD DUP7 DUP4 SWAP2 PUSH2 0x18A0 DUP4 DUP4 PUSH2 0x158A JUMP JUMPDEST MSTORE PUSH2 0x158A JUMP JUMPDEST MLOAD POP PUSH2 0x187A JUMP JUMPDEST POP POP POP SWAP1 POP PUSH2 0x18BD SWAP3 SWAP2 POP PUSH2 0x1661 JUMP JUMPDEST SWAP1 JUMP JUMPDEST PUSH2 0x18D4 DUP4 PUSH2 0x18CE PUSH1 0x0 PUSH2 0x927 JUMP JUMPDEST SWAP1 PUSH2 0x158A JUMP JUMPDEST MLOAD PUSH2 0x17D7 JUMP JUMPDEST PUSH2 0x17BA PUSH2 0x18F1 DUP5 PUSH2 0x18EB PUSH1 0x1 PUSH2 0xEA8 JUMP JUMPDEST SWAP1 PUSH2 0x158A JUMP JUMPDEST MLOAD PUSH2 0x17B3 JUMP JUMPDEST PUSH2 0x1924 PUSH2 0x191E PUSH1 0x20 PUSH2 0x1916 PUSH2 0x192A SWAP5 PUSH2 0x1910 PUSH1 0x0 PUSH2 0x927 JUMP JUMPDEST SWAP1 PUSH2 0x158A JUMP JUMPDEST MLOAD ADD MLOAD PUSH2 0x15B4 JUMP JUMPDEST SWAP3 PUSH2 0x88 JUMP JUMPDEST SWAP2 PUSH2 0x88 JUMP JUMPDEST EQ SWAP1 JUMP JUMPDEST PUSH2 0x1936 PUSH2 0x73 JUMP JUMPDEST PUSH3 0x461BCD PUSH1 0xE5 SHL DUP2 MSTORE DUP1 PUSH2 0x194C PUSH1 0x4 DUP3 ADD PUSH2 0x1571 JUMP JUMPDEST SUB SWAP1 REVERT JUMPDEST PUSH1 0x60 SWAP1 JUMP JUMPDEST SWAP1 POP SWAP1 JUMP JUMPDEST PUSH1 0x0 JUMPDEST DUP4 DUP2 LT PUSH2 0x196E JUMPI POP POP SWAP1 PUSH1 0x0 SWAP2 ADD MSTORE JUMP JUMPDEST DUP1 PUSH1 0x20 SWAP2 DUP4 ADD MLOAD DUP2 DUP6 ADD MSTORE ADD PUSH2 0x195D JUMP JUMPDEST PUSH2 0x19A4 PUSH2 0x199B SWAP3 PUSH1 0x20 SWAP3 PUSH2 0x1992 DUP2 PUSH2 0x15AA JUMP JUMPDEST SWAP5 DUP6 DUP1 SWAP4 PUSH2 0x1955 JUMP JUMPDEST SWAP4 DUP5 SWAP2 ADD PUSH2 0x195A JUMP JUMPDEST ADD SWAP1 JUMP JUMPDEST PUSH2 0x19B6 SWAP1 PUSH2 0x19BC SWAP4 SWAP3 PUSH2 0x197F JUMP JUMPDEST SWAP1 PUSH2 0x197F JUMP JUMPDEST SWAP1 JUMP JUMPDEST PUSH2 0x19DE SWAP3 SWAP2 PUSH2 0x19EA SWAP2 PUSH2 0x19D0 PUSH2 0x73 JUMP JUMPDEST SWAP5 DUP6 SWAP3 PUSH1 0x20 DUP5 ADD SWAP3 DUP4 PUSH2 0x19A8 JUMP JUMPDEST SWAP1 DUP2 SUB DUP3 MSTORE SUB DUP4 PUSH2 0x4E9 JUMP JUMPDEST JUMP JUMPDEST SWAP1 JUMP JUMPDEST PUSH2 0x19FB PUSH2 0x1A00 SWAP2 PUSH2 0x88 JUMP JUMPDEST PUSH2 0x19EC JUMP JUMPDEST SWAP1 MSTORE JUMP JUMPDEST PUSH2 0x1A10 DUP2 PUSH1 0x20 SWAP4 PUSH2 0x19EF JUMP JUMPDEST ADD SWAP1 JUMP JUMPDEST SWAP1 PUSH2 0x1A3C PUSH2 0x1A20 PUSH2 0x73 JUMP JUMPDEST DUP1 SWAP4 PUSH2 0x1A30 PUSH1 0x20 DUP4 ADD SWAP2 DUP3 PUSH2 0x1A04 JUMP JUMPDEST SWAP1 DUP2 SUB DUP3 MSTORE SUB DUP4 PUSH2 0x4E9 JUMP JUMPDEST JUMP JUMPDEST PUSH2 0x1A6C SWAP2 PUSH2 0x1A54 SWAP2 PUSH2 0x1A4E PUSH2 0x1950 JUMP JUMPDEST POP PUSH2 0x19BF JUMP JUMPDEST PUSH2 0x1A66 PUSH2 0x1A60 DUP3 PUSH2 0x15AA JUMP JUMPDEST SWAP2 PUSH2 0x15AE JUMP JUMPDEST KECCAK256 PUSH2 0x1A14 JUMP JUMPDEST SWAP1 JUMP INVALID LOG2 PUSH5 0x6970667358 0x22 SLT KECCAK256 0xA6 0xE PC 0xD2 0x4B STATICCALL 0x2B CREATE2 0xCD DELEGATECALL 0xC1 0xBC SWAP13 0xB8 0x2F DUP13 PUSH23 0x1193AEE3EADE6E2330B66A157A8A3264736F6C63430008 SHL STOP CALLER "
        },
        "methodIdentifiers": {
          "challenge(bytes32,(bool[],bytes)[],(bool[],bytes)[],(bool[],bytes)[])": "3d9085c7",
          "latest()": "52bfe789",
          "lock()": "f83d08ba",
          "propose(bytes32,bytes32,(address,address,uint256,bytes32)[])": "c1e64b54",
          "unlock(uint256,bytes32[])": "bae35252"
        }
      }
    }
  }
}