{
  "contracts/Counter.sol": {
    "Counter": {
      "abi": [
        {
          "inputs": [],
          "stateMutability": "nonpayable",
          "type": "constructor"
        },
        {
          "inputs": [
            {
              "internalType": "address",
              "name": "owner",
              "type": "address"
            }
          ],
          "name": "OwnableInvalidOwner",
          "type": "error"
        },
        {
          "inputs": [
            {
              "internalType": "address",
              "name": "account",
              "type": "address"
            }
          ],
          "name": "OwnableUnauthorizedAccount",
          "type": "error"
        },
        {
          "anonymous": false,
          "inputs": [
            {
              "indexed": true,
              "internalType": "address",
              "name": "account",
              "type": "address"
            },
            {
              "indexed": false,
              "internalType": "uint256",
              "name": "counter",
              "type": "uint256"
            }
          ],
          "name": "Increase",
          "type": "event"
        },
        {
          "anonymous": false,
          "inputs": [
            {
              "indexed": true,
              "internalType": "address",
              "name": "previousOwner",
              "type": "address"
            },
            {
              "indexed": true,
              "internalType": "address",
              "name": "newOwner",
              "type": "address"
            }
          ],
          "name": "OwnershipTransferred",
          "type": "event"
        },
        {
          "inputs": [],
          "name": "counter",
          "outputs": [
            {
              "internalType": "uint256",
              "name": "",
              "type": "uint256"
            }
          ],
          "stateMutability": "view",
          "type": "function"
        },
        {
          "inputs": [],
          "name": "increase",
          "outputs": [],
          "stateMutability": "nonpayable",
          "type": "function"
        },
        {
          "inputs": [],
          "name": "owner",
          "outputs": [
            {
              "internalType": "address",
              "name": "",
              "type": "address"
            }
          ],
          "stateMutability": "view",
          "type": "function"
        },
        {
          "inputs": [],
          "name": "renounceOwnership",
          "outputs": [],
          "stateMutability": "nonpayable",
          "type": "function"
        },
        {
          "inputs": [
            {
              "internalType": "address",
              "name": "newOwner",
              "type": "address"
            }
          ],
          "name": "transferOwnership",
          "outputs": [],
          "stateMutability": "nonpayable",
          "type": "function"
        }
      ],
      "evm": {
        "bytecode": {
          "linkReferences": {},
          "object": "608060405234610027576100116100b8565b61001961002c565b61066e61029a823961066e90f35b610032565b60405190565b600080fd5b90565b90565b90565b61005461004f61005992610037565b61003d565b61003a565b90565b60001b90565b9061006f6000199161005c565b9181191691161790565b61008d6100886100929261003a565b61003d565b61003a565b90565b90565b906100ad6100a86100b492610079565b610095565b8254610062565b9055565b6100c133610139565b6100d56100ce6000610040565b6001610098565b565b60018060a01b031690565b6100f66100f16100fb92610037565b61003d565b6100d7565b90565b610107906100e2565b90565b610113906100d7565b90565b61011f9061010a565b9052565b919061013790600060208501940190610116565b565b8061015561014f61014a60006100fe565b61010a565b9161010a565b146101655761016390610238565b565b61018a61017260006100fe565b6000918291631e4fbdf760e01b835260048301610123565b0390fd5b60001c90565b60018060a01b031690565b6101ab6101b09161018e565b610194565b90565b6101bd905461019f565b90565b906101d160018060a01b039161005c565b9181191691161790565b6101ef6101ea6101f4926100d7565b61003d565b6100d7565b90565b610200906101db565b90565b61020c906101f7565b90565b90565b9061022761022261022e92610203565b61020f565b82546101c0565b9055565b60000190565b61024260006101b3565b61024d826000610212565b9061028161027b7f8be0079c531659141344cd1fd0a4f28419497f9722a3daafe3b4186f6b6457e093610203565b91610203565b9161028a61002c565b8061029481610232565b0390a356fe60806040526004361015610013575b61027c565b61001e60003561006d565b806361bc221a14610068578063715018a6146100635780638da5cb5b1461005e578063e8927fbc146100595763f2fde38b0361000e57610249565b6101d3565b61019e565b610131565b6100f6565b60e01c90565b60405190565b600080fd5b600080fd5b600091031261008e57565b61007e565b1c90565b90565b6100aa9060086100af9302610093565b610097565b90565b906100bd915461009a565b90565b6100cd60016000906100b2565b90565b90565b6100dc906100d0565b9052565b91906100f4906000602085019401906100d3565b565b3461012657610106366004610083565b6101226101116100c0565b610119610073565b918291826100e0565b0390f35b610079565b60000190565b3461015f57610141366004610083565b6101496102d5565b610151610073565b8061015b8161012b565b0390f35b610079565b60018060a01b031690565b61017890610164565b90565b6101849061016f565b9052565b919061019c9060006020850194019061017b565b565b346101ce576101ae366004610083565b6101ca6101b9610316565b6101c1610073565b91829182610188565b0390f35b610079565b34610201576101e3366004610083565b6101eb6104c0565b6101f3610073565b806101fd8161012b565b0390f35b610079565b61020f8161016f565b0361021657565b600080fd5b9050359061022882610206565b565b90602082820312610244576102419160000161021b565b90565b61007e565b346102775761026161025c36600461022a565b610532565b610269610073565b806102738161012b565b0390f35b610079565b600080fd5b61028961053d565b6102916102c1565b565b90565b90565b6102ad6102a86102b292610293565b610296565b610164565b90565b6102be90610299565b90565b6102d36102ce60006102b5565b6105ca565b565b6102dd610281565b565b600090565b60001c90565b60018060a01b031690565b610301610306916102e4565b6102ea565b90565b61031390546102f5565b90565b61031e6102df565b506103296000610309565b90565b61033461053d565b61033c610449565b565b61034a61034f916102e4565b610097565b90565b61035c905461033e565b90565b90565b61037661037161037b9261035f565b610296565b6100d0565b90565b634e487b7160e01b600052601160045260246000fd5b6103a36103a9919392936100d0565b926100d0565b82018092116103b457565b61037e565b60001b90565b906103cc600019916103b9565b9181191691161790565b6103ea6103e56103ef926100d0565b610296565b6100d0565b90565b90565b9061040a610405610411926103d6565b6103f2565b82546103bf565b9055565b61042961042461042e92610164565b610296565b610164565b90565b61043a90610415565b90565b61044690610431565b90565b6104706104696104596001610352565b6104636001610362565b90610394565b60016103f5565b3361047b6001610352565b906104bb6104a97f12007e72f6f07d1e7dd33219d5187184ceba138e79459b6c241cec9a9399fe0c9261043d565b926104b2610073565b918291826100e0565b0390a2565b6104c861032c565b565b6104db906104d661053d565b6104dd565b565b806104f96104f36104ee60006102b5565b61016f565b9161016f565b1461050957610507906105ca565b565b61052e61051660006102b5565b6000918291631e4fbdf760e01b835260048301610188565b0390fd5b61053b906104ca565b565b610545610316565b61055e61055861055361062b565b61016f565b9161016f565b0361056557565b61058861057061062b565b600091829163118cdaa760e01b835260048301610188565b0390fd5b9061059d60018060a01b03916103b9565b9181191691161790565b90565b906105bf6105ba6105c69261043d565b6105a7565b825461058c565b9055565b6105d46000610309565b6105df8260006105aa565b9061061361060d7f8be0079c531659141344cd1fd0a4f28419497f9722a3daafe3b4186f6b6457e09361043d565b9161043d565b9161061c610073565b806106268161012b565b0390a3565b6106336102df565b50339056fea2646970667358221220aa3afb410c7ca8035c001dcc058773f079b97d780d1ebe74bc41383edc8d5e6c64736f6c634300081b0033",
          "opcodes": "PUSH1 0x80 PUSH1 0x40 MSTORE CALLVALUE PUSH2 0x27 JUMPI PUSH2 0x11 PUSH2 0xB8 JUMP JUMPDEST PUSH2 0x19 PUSH2 0x2C JUMP JUMPDEST PUSH2 0x66E PUSH2 0x29A DUP3 CODECOPY PUSH2 0x66E SWAP1 RETURN JUMPDEST PUSH2 0x32 JUMP JUMPDEST PUSH1 0x40 MLOAD SWAP1 JUMP JUMPDEST PUSH1 0x0 DUP1 REVERT JUMPDEST SWAP1 JUMP JUMPDEST SWAP1 JUMP JUMPDEST SWAP1 JUMP JUMPDEST PUSH2 0x54 PUSH2 0x4F PUSH2 0x59 SWAP3 PUSH2 0x37 JUMP JUMPDEST PUSH2 0x3D JUMP JUMPDEST PUSH2 0x3A JUMP JUMPDEST SWAP1 JUMP JUMPDEST PUSH1 0x0 SHL SWAP1 JUMP JUMPDEST SWAP1 PUSH2 0x6F PUSH1 0x0 NOT SWAP2 PUSH2 0x5C JUMP JUMPDEST SWAP2 DUP2 NOT AND SWAP2 AND OR SWAP1 JUMP JUMPDEST PUSH2 0x8D PUSH2 0x88 PUSH2 0x92 SWAP3 PUSH2 0x3A JUMP JUMPDEST PUSH2 0x3D JUMP JUMPDEST PUSH2 0x3A JUMP JUMPDEST SWAP1 JUMP JUMPDEST SWAP1 JUMP JUMPDEST SWAP1 PUSH2 0xAD PUSH2 0xA8 PUSH2 0xB4 SWAP3 PUSH2 0x79 JUMP JUMPDEST PUSH2 0x95 JUMP JUMPDEST DUP3 SLOAD PUSH2 0x62 JUMP JUMPDEST SWAP1 SSTORE JUMP JUMPDEST PUSH2 0xC1 CALLER PUSH2 0x139 JUMP JUMPDEST PUSH2 0xD5 PUSH2 0xCE PUSH1 0x0 PUSH2 0x40 JUMP JUMPDEST PUSH1 0x1 PUSH2 0x98 JUMP JUMPDEST JUMP JUMPDEST PUSH1 0x1 DUP1 PUSH1 0xA0 SHL SUB AND SWAP1 JUMP JUMPDEST PUSH2 0xF6 PUSH2 0xF1 PUSH2 0xFB SWAP3 PUSH2 0x37 JUMP JUMPDEST PUSH2 0x3D JUMP JUMPDEST PUSH2 0xD7 JUMP JUMPDEST SWAP1 JUMP JUMPDEST PUSH2 0x107 SWAP1 PUSH2 0xE2 JUMP JUMPDEST SWAP1 JUMP JUMPDEST PUSH2 0x113 SWAP1 PUSH2 0xD7 JUMP JUMPDEST SWAP1 JUMP JUMPDEST PUSH2 0x11F SWAP1 PUSH2 0x10A JUMP JUMPDEST SWAP1 MSTORE JUMP JUMPDEST SWAP2 SWAP1 PUSH2 0x137 SWAP1 PUSH1 0x0 PUSH1 0x20 DUP6 ADD SWAP5 ADD SWAP1 PUSH2 0x116 JUMP JUMPDEST JUMP JUMPDEST DUP1 PUSH2 0x155 PUSH2 0x14F PUSH2 0x14A PUSH1 0x0 PUSH2 0xFE JUMP JUMPDEST PUSH2 0x10A JUMP JUMPDEST SWAP2 PUSH2 0x10A JUMP JUMPDEST EQ PUSH2 0x165 JUMPI PUSH2 0x163 SWAP1 PUSH2 0x238 JUMP JUMPDEST JUMP JUMPDEST PUSH2 0x18A PUSH2 0x172 PUSH1 0x0 PUSH2 0xFE JUMP JUMPDEST PUSH1 0x0 SWAP2 DUP3 SWAP2 PUSH4 0x1E4FBDF7 PUSH1 0xE0 SHL DUP4 MSTORE PUSH1 0x4 DUP4 ADD PUSH2 0x123 JUMP JUMPDEST SUB SWAP1 REVERT JUMPDEST PUSH1 0x0 SHR SWAP1 JUMP JUMPDEST PUSH1 0x1 DUP1 PUSH1 0xA0 SHL SUB AND SWAP1 JUMP JUMPDEST PUSH2 0x1AB PUSH2 0x1B0 SWAP2 PUSH2 0x18E JUMP JUMPDEST PUSH2 0x194 JUMP JUMPDEST SWAP1 JUMP JUMPDEST PUSH2 0x1BD SWAP1 SLOAD PUSH2 0x19F JUMP JUMPDEST SWAP1 JUMP JUMPDEST SWAP1 PUSH2 0x1D1 PUSH1 0x1 DUP1 PUSH1 0xA0 SHL SUB SWAP2 PUSH2 0x5C JUMP JUMPDEST SWAP2 DUP2 NOT AND SWAP2 AND OR SWAP1 JUMP JUMPDEST PUSH2 0x1EF PUSH2 0x1EA PUSH2 0x1F4 SWAP3 PUSH2 0xD7 JUMP JUMPDEST PUSH2 0x3D JUMP JUMPDEST PUSH2 0xD7 JUMP JUMPDEST SWAP1 JUMP JUMPDEST PUSH2 0x200 SWAP1 PUSH2 0x1DB JUMP JUMPDEST SWAP1 JUMP JUMPDEST PUSH2 0x20C SWAP1 PUSH2 0x1F7 JUMP JUMPDEST SWAP1 JUMP JUMPDEST SWAP1 JUMP JUMPDEST SWAP1 PUSH2 0x227 PUSH2 0x222 PUSH2 0x22E SWAP3 PUSH2 0x203 JUMP JUMPDEST PUSH2 0x20F JUMP JUMPDEST DUP3 SLOAD PUSH2 0x1C0 JUMP JUMPDEST SWAP1 SSTORE JUMP JUMPDEST PUSH1 0x0 ADD SWAP1 JUMP JUMPDEST PUSH2 0x242 PUSH1 0x0 PUSH2 0x1B3 JUMP JUMPDEST PUSH2 0x24D DUP3 PUSH1 0x0 PUSH2 0x212 JUMP JUMPDEST SWAP1 PUSH2 0x281 PUSH2 0x27B PUSH32 0x8BE0079C531659141344CD1FD0A4F28419497F9722A3DAAFE3B4186F6B6457E0 SWAP4 PUSH2 0x203 JUMP JUMPDEST SWAP2 PUSH2 0x203 JUMP JUMPDEST SWAP2 PUSH2 0x28A PUSH2 0x2C JUMP JUMPDEST DUP1 PUSH2 0x294 DUP2 PUSH2 0x232 JUMP JUMPDEST SUB SWAP1 LOG3 JUMP INVALID PUSH1 0x80 PUSH1 0x40 MSTORE PUSH1 0x4 CALLDATASIZE LT ISZERO PUSH2 0x13 JUMPI JUMPDEST PUSH2 0x27C JUMP JUMPDEST PUSH2 0x1E PUSH1 0x0 CALLDATALOAD PUSH2 0x6D JUMP JUMPDEST DUP1 PUSH4 0x61BC221A EQ PUSH2 0x68 JUMPI DUP1 PUSH4 0x715018A6 EQ PUSH2 0x63 JUMPI DUP1 PUSH4 0x8DA5CB5B EQ PUSH2 0x5E JUMPI DUP1 PUSH4 0xE8927FBC EQ PUSH2 0x59 JUMPI PUSH4 0xF2FDE38B SUB PUSH2 0xE JUMPI PUSH2 0x249 JUMP JUMPDEST PUSH2 0x1D3 JUMP JUMPDEST PUSH2 0x19E JUMP JUMPDEST PUSH2 0x131 JUMP JUMPDEST PUSH2 0xF6 JUMP JUMPDEST PUSH1 0xE0 SHR SWAP1 JUMP JUMPDEST PUSH1 0x40 MLOAD SWAP1 JUMP JUMPDEST PUSH1 0x0 DUP1 REVERT JUMPDEST PUSH1 0x0 DUP1 REVERT JUMPDEST PUSH1 0x0 SWAP2 SUB SLT PUSH2 0x8E JUMPI JUMP JUMPDEST PUSH2 0x7E JUMP JUMPDEST SHR SWAP1 JUMP JUMPDEST SWAP1 JUMP JUMPDEST PUSH2 0xAA SWAP1 PUSH1 0x8 PUSH2 0xAF SWAP4 MUL PUSH2 0x93 JUMP JUMPDEST PUSH2 0x97 JUMP JUMPDEST SWAP1 JUMP JUMPDEST SWAP1 PUSH2 0xBD SWAP2 SLOAD PUSH2 0x9A JUMP JUMPDEST SWAP1 JUMP JUMPDEST PUSH2 0xCD PUSH1 0x1 PUSH1 0x0 SWAP1 PUSH2 0xB2 JUMP JUMPDEST SWAP1 JUMP JUMPDEST SWAP1 JUMP JUMPDEST PUSH2 0xDC SWAP1 PUSH2 0xD0 JUMP JUMPDEST SWAP1 MSTORE JUMP JUMPDEST SWAP2 SWAP1 PUSH2 0xF4 SWAP1 PUSH1 0x0 PUSH1 0x20 DUP6 ADD SWAP5 ADD SWAP1 PUSH2 0xD3 JUMP JUMPDEST JUMP JUMPDEST CALLVALUE PUSH2 0x126 JUMPI PUSH2 0x106 CALLDATASIZE PUSH1 0x4 PUSH2 0x83 JUMP JUMPDEST PUSH2 0x122 PUSH2 0x111 PUSH2 0xC0 JUMP JUMPDEST PUSH2 0x119 PUSH2 0x73 JUMP JUMPDEST SWAP2 DUP3 SWAP2 DUP3 PUSH2 0xE0 JUMP JUMPDEST SUB SWAP1 RETURN JUMPDEST PUSH2 0x79 JUMP JUMPDEST PUSH1 0x0 ADD SWAP1 JUMP JUMPDEST CALLVALUE PUSH2 0x15F JUMPI PUSH2 0x141 CALLDATASIZE PUSH1 0x4 PUSH2 0x83 JUMP JUMPDEST PUSH2 0x149 PUSH2 0x2D5 JUMP JUMPDEST PUSH2 0x151 PUSH2 0x73 JUMP JUMPDEST DUP1 PUSH2 0x15B DUP2 PUSH2 0x12B JUMP JUMPDEST SUB SWAP1 RETURN JUMPDEST PUSH2 0x79 JUMP JUMPDEST PUSH1 0x1 DUP1 PUSH1 0xA0 SHL SUB AND SWAP1 JUMP JUMPDEST PUSH2 0x178 SWAP1 PUSH2 0x164 JUMP JUMPDEST SWAP1 JUMP JUMPDEST PUSH2 0x184 SWAP1 PUSH2 0x16F JUMP JUMPDEST SWAP1 MSTORE JUMP JUMPDEST SWAP2 SWAP1 PUSH2 0x19C SWAP1 PUSH1 0x0 PUSH1 0x20 DUP6 ADD SWAP5 ADD SWAP1 PUSH2 0x17B JUMP JUMPDEST JUMP JUMPDEST CALLVALUE PUSH2 0x1CE JUMPI PUSH2 0x1AE CALLDATASIZE PUSH1 0x4 PUSH2 0x83 JUMP JUMPDEST PUSH2 0x1CA PUSH2 0x1B9 PUSH2 0x316 JUMP JUMPDEST PUSH2 0x1C1 PUSH2 0x73 JUMP JUMPDEST SWAP2 DUP3 SWAP2 DUP3 PUSH2 0x188 JUMP JUMPDEST SUB SWAP1 RETURN JUMPDEST PUSH2 0x79 JUMP JUMPDEST CALLVALUE PUSH2 0x201 JUMPI PUSH2 0x1E3 CALLDATASIZE PUSH1 0x4 PUSH2 0x83 JUMP JUMPDEST PUSH2 0x1EB PUSH2 0x4C0 JUMP JUMPDEST PUSH2 0x1F3 PUSH2 0x73 JUMP JUMPDEST DUP1 PUSH2 0x1FD DUP2 PUSH2 0x12B JUMP JUMPDEST SUB SWAP1 RETURN JUMPDEST PUSH2 0x79 JUMP JUMPDEST PUSH2 0x20F DUP2 PUSH2 0x16F JUMP JUMPDEST SUB PUSH2 0x216 JUMPI JUMP JUMPDEST PUSH1 0x0 DUP1 REVERT JUMPDEST SWAP1 POP CALLDATALOAD SWAP1 PUSH2 0x228 DUP3 PUSH2 0x206 JUMP JUMPDEST JUMP JUMPDEST SWAP1 PUSH1 0x20 DUP3 DUP3 SUB SLT PUSH2 0x244 JUMPI PUSH2 0x241 SWAP2 PUSH1 0x0 ADD PUSH2 0x21B JUMP JUMPDEST SWAP1 JUMP JUMPDEST PUSH2 0x7E JUMP JUMPDEST CALLVALUE PUSH2 0x277 JUMPI PUSH2 0x261 PUSH2 0x25C CALLDATASIZE PUSH1 0x4 PUSH2 0x22A JUMP JUMPDEST PUSH2 0x532 JUMP JUMPDEST PUSH2 0x269 PUSH2 0x73 JUMP JUMPDEST DUP1 PUSH2 0x273 DUP2 PUSH2 0x12B JUMP JUMPDEST SUB SWAP1 RETURN JUMPDEST PUSH2 0x79 JUMP JUMPDEST PUSH1 0x0 DUP1 REVERT JUMPDEST PUSH2 0x289 PUSH2 0x53D JUMP JUMPDEST PUSH2 0x291 PUSH2 0x2C1 JUMP JUMPDEST JUMP JUMPDEST SWAP1 JUMP JUMPDEST SWAP1 JUMP JUMPDEST PUSH2 0x2AD PUSH2 0x2A8 PUSH2 0x2B2 SWAP3 PUSH2 0x293 JUMP JUMPDEST PUSH2 0x296 JUMP JUMPDEST PUSH2 0x164 JUMP JUMPDEST SWAP1 JUMP JUMPDEST PUSH2 0x2BE SWAP1 PUSH2 0x299 JUMP JUMPDEST SWAP1 JUMP JUMPDEST PUSH2 0x2D3 PUSH2 0x2CE PUSH1 0x0 PUSH2 0x2B5 JUMP JUMPDEST PUSH2 0x5CA JUMP JUMPDEST JUMP JUMPDEST PUSH2 0x2DD PUSH2 0x281 JUMP JUMPDEST JUMP JUMPDEST PUSH1 0x0 SWAP1 JUMP JUMPDEST PUSH1 0x0 SHR SWAP1 JUMP JUMPDEST PUSH1 0x1 DUP1 PUSH1 0xA0 SHL SUB AND SWAP1 JUMP JUMPDEST PUSH2 0x301 PUSH2 0x306 SWAP2 PUSH2 0x2E4 JUMP JUMPDEST PUSH2 0x2EA JUMP JUMPDEST SWAP1 JUMP JUMPDEST PUSH2 0x313 SWAP1 SLOAD PUSH2 0x2F5 JUMP JUMPDEST SWAP1 JUMP JUMPDEST PUSH2 0x31E PUSH2 0x2DF JUMP JUMPDEST POP PUSH2 0x329 PUSH1 0x0 PUSH2 0x309 JUMP JUMPDEST SWAP1 JUMP JUMPDEST PUSH2 0x334 PUSH2 0x53D JUMP JUMPDEST PUSH2 0x33C PUSH2 0x449 JUMP JUMPDEST JUMP JUMPDEST PUSH2 0x34A PUSH2 0x34F SWAP2 PUSH2 0x2E4 JUMP JUMPDEST PUSH2 0x97 JUMP JUMPDEST SWAP1 JUMP JUMPDEST PUSH2 0x35C SWAP1 SLOAD PUSH2 0x33E JUMP JUMPDEST SWAP1 JUMP JUMPDEST SWAP1 JUMP JUMPDEST PUSH2 0x376 PUSH2 0x371 PUSH2 0x37B SWAP3 PUSH2 0x35F JUMP JUMPDEST PUSH2 0x296 JUMP JUMPDEST PUSH2 0xD0 JUMP JUMPDEST SWAP1 JUMP JUMPDEST PUSH4 0x4E487B71 PUSH1 0xE0 SHL PUSH1 0x0 MSTORE PUSH1 0x11 PUSH1 0x4 MSTORE PUSH1 0x24 PUSH1 0x0 REVERT JUMPDEST PUSH2 0x3A3 PUSH2 0x3A9 SWAP2 SWAP4 SWAP3 SWAP4 PUSH2 0xD0 JUMP JUMPDEST SWAP3 PUSH2 0xD0 JUMP JUMPDEST DUP3 ADD DUP1 SWAP3 GT PUSH2 0x3B4 JUMPI JUMP JUMPDEST PUSH2 0x37E JUMP JUMPDEST PUSH1 0x0 SHL SWAP1 JUMP JUMPDEST SWAP1 PUSH2 0x3CC PUSH1 0x0 NOT SWAP2 PUSH2 0x3B9 JUMP JUMPDEST SWAP2 DUP2 NOT AND SWAP2 AND OR SWAP1 JUMP JUMPDEST PUSH2 0x3EA PUSH2 0x3E5 PUSH2 0x3EF SWAP3 PUSH2 0xD0 JUMP JUMPDEST PUSH2 0x296 JUMP JUMPDEST PUSH2 0xD0 JUMP JUMPDEST SWAP1 JUMP JUMPDEST SWAP1 JUMP JUMPDEST SWAP1 PUSH2 0x40A PUSH2 0x405 PUSH2 0x411 SWAP3 PUSH2 0x3D6 JUMP JUMPDEST PUSH2 0x3F2 JUMP JUMPDEST DUP3 SLOAD PUSH2 0x3BF JUMP JUMPDEST SWAP1 SSTORE JUMP JUMPDEST PUSH2 0x429 PUSH2 0x424 PUSH2 0x42E SWAP3 PUSH2 0x164 JUMP JUMPDEST PUSH2 0x296 JUMP JUMPDEST PUSH2 0x164 JUMP JUMPDEST SWAP1 JUMP JUMPDEST PUSH2 0x43A SWAP1 PUSH2 0x415 JUMP JUMPDEST SWAP1 JUMP JUMPDEST PUSH2 0x446 SWAP1 PUSH2 0x431 JUMP JUMPDEST SWAP1 JUMP JUMPDEST PUSH2 0x470 PUSH2 0x469 PUSH2 0x459 PUSH1 0x1 PUSH2 0x352 JUMP JUMPDEST PUSH2 0x463 PUSH1 0x1 PUSH2 0x362 JUMP JUMPDEST SWAP1 PUSH2 0x394 JUMP JUMPDEST PUSH1 0x1 PUSH2 0x3F5 JUMP JUMPDEST CALLER PUSH2 0x47B PUSH1 0x1 PUSH2 0x352 JUMP JUMPDEST SWAP1 PUSH2 0x4BB PUSH2 0x4A9 PUSH32 0x12007E72F6F07D1E7DD33219D5187184CEBA138E79459B6C241CEC9A9399FE0C SWAP3 PUSH2 0x43D JUMP JUMPDEST SWAP3 PUSH2 0x4B2 PUSH2 0x73 JUMP JUMPDEST SWAP2 DUP3 SWAP2 DUP3 PUSH2 0xE0 JUMP JUMPDEST SUB SWAP1 LOG2 JUMP JUMPDEST PUSH2 0x4C8 PUSH2 0x32C JUMP JUMPDEST JUMP JUMPDEST PUSH2 0x4DB SWAP1 PUSH2 0x4D6 PUSH2 0x53D JUMP JUMPDEST PUSH2 0x4DD JUMP JUMPDEST JUMP JUMPDEST DUP1 PUSH2 0x4F9 PUSH2 0x4F3 PUSH2 0x4EE PUSH1 0x0 PUSH2 0x2B5 JUMP JUMPDEST PUSH2 0x16F JUMP JUMPDEST SWAP2 PUSH2 0x16F JUMP JUMPDEST EQ PUSH2 0x509 JUMPI PUSH2 0x507 SWAP1 PUSH2 0x5CA JUMP JUMPDEST JUMP JUMPDEST PUSH2 0x52E PUSH2 0x516 PUSH1 0x0 PUSH2 0x2B5 JUMP JUMPDEST PUSH1 0x0 SWAP2 DUP3 SWAP2 PUSH4 0x1E4FBDF7 PUSH1 0xE0 SHL DUP4 MSTORE PUSH1 0x4 DUP4 ADD PUSH2 0x188 JUMP JUMPDEST SUB SWAP1 REVERT JUMPDEST PUSH2 0x53B SWAP1 PUSH2 0x4CA JUMP JUMPDEST JUMP JUMPDEST PUSH2 0x545 PUSH2 0x316 JUMP JUMPDEST PUSH2 0x55E PUSH2 0x558 PUSH2 0x553 PUSH2 0x62B JUMP JUMPDEST PUSH2 0x16F JUMP JUMPDEST SWAP2 PUSH2 0x16F JUMP JUMPDEST SUB PUSH2 0x565 JUMPI JUMP JUMPDEST PUSH2 0x588 PUSH2 0x570 PUSH2 0x62B JUMP JUMPDEST PUSH1 0x0 SWAP2 DUP3 SWAP2 PUSH4 0x118CDAA7 PUSH1 0xE0 SHL DUP4 MSTORE PUSH1 0x4 DUP4 ADD PUSH2 0x188 JUMP JUMPDEST SUB SWAP1 REVERT JUMPDEST SWAP1 PUSH2 0x59D PUSH1 0x1 DUP1 PUSH1 0xA0 SHL SUB SWAP2 PUSH2 0x3B9 JUMP JUMPDEST SWAP2 DUP2 NOT AND SWAP2 AND OR SWAP1 JUMP JUMPDEST SWAP1 JUMP JUMPDEST SWAP1 PUSH2 0x5BF PUSH2 0x5BA PUSH2 0x5C6 SWAP3 PUSH2 0x43D JUMP JUMPDEST PUSH2 0x5A7 JUMP JUMPDEST DUP3 SLOAD PUSH2 0x58C JUMP JUMPDEST SWAP1 SSTORE JUMP JUMPDEST PUSH2 0x5D4 PUSH1 0x0 PUSH2 0x309 JUMP JUMPDEST PUSH2 0x5DF DUP3 PUSH1 0x0 PUSH2 0x5AA JUMP JUMPDEST SWAP1 PUSH2 0x613 PUSH2 0x60D PUSH32 0x8BE0079C531659141344CD1FD0A4F28419497F9722A3DAAFE3B4186F6B6457E0 SWAP4 PUSH2 0x43D JUMP JUMPDEST SWAP2 PUSH2 0x43D JUMP JUMPDEST SWAP2 PUSH2 0x61C PUSH2 0x73 JUMP JUMPDEST DUP1 PUSH2 0x626 DUP2 PUSH2 0x12B JUMP JUMPDEST SUB SWAP1 LOG3 JUMP JUMPDEST PUSH2 0x633 PUSH2 0x2DF JUMP JUMPDEST POP CALLER SWAP1 JUMP INVALID LOG2 PUSH5 0x6970667358 0x22 SLT KECCAK256 0xAA GASPRICE 0xFB COINBASE 0xC PUSH29 0xA8035C001DCC058773F079B97D780D1EBE74BC41383EDC8D5E6C64736F PUSH13 0x634300081B0033000000000000 "
        },
        "methodIdentifiers": {
          "counter()": "61bc221a",
          "increase()": "e8927fbc",
          "owner()": "8da5cb5b",
          "renounceOwnership()": "715018a6",
          "transferOwnership(address)": "f2fde38b"
        }
      }
    }
  }
}